:020000040000FA
:080000007E2B0100010001004C
:08000800F01A12280A30890BDE
:10001000072821008C100530890B0C2800008C1457
:1000200024000C168A01730882072F2847285C28B1
:100030006928772892289E28C02837293F298829AF
:10004000A0292A2A542A7E2AA82AD22AFC2A102B3E
:10005000292B010024000C123B003D1009007208FE
:1000600003193C28F20A06307202031D2A28F20105
:10007000F30A0630F1072A283B004130B300B401EF
:100080000330B6008D30B500BF17F20A2A28720877
:1000900003195428F20A06307202031D2A28F201BD
:1000A000F30A0630F1072A283B000830B30003307A
:1000B000B400BF17F20A2A28720803193C28063038
:1000C000720203196528F20A2A28F30AF201F01CC9
:1000D0002A28F0123B008630B300B4010730B60086
:1000E0001B30B500BF17F30A0930F1002A28F30AC4
:1000F000F10A70197F2822008C1D70152A28210012
:100100000C14210003309D009D1884281D101C082C
:10011000F6004A307602031C02324A30F600210013
:100120000C102A28F30AF10A701E2A282100A90BB4
:100130002A2870123B002B13AB132A28FE0B1D320A
:100140007B08FE007908F707031D0232F909063221
:100150007708523C03180232F703F9097A08F807C6
:100160003A30780203180332FA09FA0A063278089C
:10017000F23C03180232FA09FA0AF30AF10A2A28B1
:100180002100773577078936890E0F39073CF4004F
:10019000013019007408031903328035890BFD33CF
:1001A000433019005230190078082A21031C093203
:1001B0000008200503194A320009A005093053231D
:1001C00043324B3019005A30190078082A21031C99
:1001D000093200082105031939320009A107063048
:1001E00053233232533019006230190078082A2123
:1001F000031C093200082205031928320009A20550
:100200000330532321325B3019006A30190078081B
:100210002A21031C0932000823050319173200099B
:10022000A3050230532310326330190072301900D5
:1002300078082A21031C0A32000824050319063213
:100240000009A40501305323FA09FA0A1200F30A3F
:10025000F10A2A28F400013F7402031C0532000849
:10026000F4020308013A8300023108000800F10A91
:100270001E307102031D2A28F201F30A2A282100E8
:1002800072088936893619000F307D05652300070D
:10029000D623A7007D0E0F3965230007D623A600BD
:1002A0000F307C0565230007D623752126087521AC
:1002B000270875211430890B5B290C120130890B3A
:1002C0005F2962290C160A30890B642928086523E6
:1002D0000007D6237521F20A14307202031D2A2862
:1002E000F201F30A1430F1072A28890D03180C12C1
:1002F000031C0C16890D03180C12031C0C16890D17
:1003000003180C12031C0C16003200320C160800E5
:10031000F01C0C3221001030890B8C298F298C1491
:100320000C125730890B92298C140C16F20A0830E3
:100330007202031D2A28F201F30A0830F1072A2865
:10034000F01C7E3278087102031C063208307807F0
:100350007102031C1E3203320230890BAD290D30AD
:10036000890BB02921008C140C120130890BB6299D
:1003700000000C168C140C165230890BBD29C029B4
:1003800021008C140C120130890BC42900000C16BA
:100390004D322100770803192032523C03193232C2
:1003A0000B30890BD129D4290C120130890BD629A5
:1003B00077080C16890BFE330C120230890BDE29EC
:1003C000E1290C167708523C890BFE330C120130E0
:1003D000890BE82900000C1629320C30890BEE2914
:1003E00000000C120430890BF3290C165230890BD3
:1003F000F729FA2900000C120130890BFD290000B1
:100400000C1614320B30890B032A00000C12013039
:10041000890B082A00000C165230890B0D2A102A6D
:1004200000000C120430890B132A0C16F20AF10A90
:10043000FB307102031D2A28F2011330F3002A2831
:10044000F20A10307202031D2A28F201F30A10305A
:10045000F1072A283B001B1221002008F40010306D
:10046000890B302A000008301900F435031C0432CF
:100470000C128C10000003328C140C160032073062
:10048000890B402A800BF13301318C140C1601309A
:10049000890B482AF20A08307202031D2A28F20149
:1004A000F30A0830F1072A283B001B162100210817
:1004B000F4001030890B5A2A000008301900F43576
:1004C000031C04320C128C10000003328C140C1626
:1004D00000320730890B6A2A800BF13301318C140A
:1004E0000C160130890B722AF20A08307202031DC1
:1004F0002A28F201F30A0830F1072A283B001B12D0
:1005000021002208F4001030890B842A00000830F2
:100510001900F435031C04320C168C100000033251
:100520008C140C1600320730890B942A800BF1339F
:1005300001318C140C160130890B9C2AF20A083008
:100540007202031D2A28F201F30A0830F1072A2853
:100550003B001B1621002308F4001030890BAE2A43
:10056000000008301900F435031C04320C168C10FE
:10057000000003328C140C1600320730890BBE2A9F
:10058000800BF13301318C140C160130890BC62A13
:10059000F20A08307202031D2A28F201F30A083019
:1005A000F1072A2821002408F4001030890BD62AEC
:1005B000D92A08301900F435031C04328C140C12AB
:1005C000000003328C140C1600320730890BE62A27
:1005D000800BF13301318C140C160130890BEE2A9B
:1005E0008C140C16F20A08307202031D2A28F2013C
:1005F000F30A0830F1072A281130890BFD2A000080
:100600006A30890B012B042B8C140C16F20A8030F3
:100610007202031D2A28F201F30A8030F1072A280A
:100620001230890B112B760803190232890BFE3325
:1006300021000C120A30890B1B2B1E2B0C16F20A00
:1006400008307202031D2A28F201F30A0830F1076C
:100650002A28F10A0319701470182F2B2A28F01871
:10066000362B05307102031D2A28402B06307102FB
:10067000031D2A283B000330B6008D30B500BF179C
:10068000F301F201F1017010F0160230F0062A2891
:10069000803D0A300002031C0800063080070F303E
:1006A000800503140800190003100F307D0548234E
:1006B000030119007D0E0F3948230318FC0A1200AC
:1006C000890E0004FD0001310800190089358935C3
:1006D00080071200080000308700A0308600053037
:1006E000F400FF301E00F40BFD330800890995006B
:0806F0000B110B1DFE33080085
:0406F8000034003496
:0406FC0085017030D4
:10070000840003011A00841FFD338401203085001A
:1007100003011A00051CFD336B23003085003030C7
:1007200084005030950023008C010C1421002030EF
:100730009E0024008C018C1521000C1122000C1647
:100740003B009F01910192019701980196010730AA
:1007500095000430930094019F17C0309B003B002C
:10076000BF01B101B201B701B8011B30B5000730BC
:10077000B6008630B300B401D030BB00BF173C14C4
:1007800020001313210013170B178B17F014F0160A
:1007900021000330A8005230F700F703CA30F800F8
:1007A000F90A0430FA000230FB00D52B0B0040346C
:1007B000A034A034A03440344034C03440344034F9
:1007C000E034E0342034C0348034E034E034203489
:1007D000C0342034E034A034A034E0342034203459
:1007E000E0348034E0342034E034C0348034E03409
:1007F000A034E034E0342034203420342034E03499
:10080000A034E034A034E034E034A034E0342034C8
:02081000603452
:020000040001F9
:02000E00A73F0A
:02001000FF3EB1
:00000001FF
