:020000040000FA
:08000000302C01000100010099
:08000800701912280A30890B5F
:10001000072821008C100530890B0C2800008C1457
:1000200024000C1673080B002E2846285B2868282D
:100030007628AE28EF281429C029C829142A2C2A8A
:10004000B92ADF2A052B2B2B512B782B8A2BA32B9C
:10005000010024000C123B003D1009007208031936
:100060003B28F20A06307202031D2928F201F30A26
:100070000630F10729283B004130B300B4010330BA
:10008000B6008D30B500BF17F20A2928720803198F
:100090005328F20A06307202031D2928F201F30ADE
:1000A0000630F10729283B000830B3000330B400C4
:1000B000BF17F20A2928720803193B28063072027A
:1000C00003196428F20A2928F30AF201F01C2928EE
:1000D00070113B008630B300B4010730B6001B300E
:1000E000B500BF17F30A0930F1002928F30AF10A15
:1000F000F01D2928F01A84202100B00B2928F011C6
:100100003B002B13AB132928F01D0800F01C08003E
:100110003B00A636A50CA436A30CAF170800F01DB3
:100120000800F01C08003B00A535A60DA335A40D62
:10013000AF170800F0153B000008C324A600000A12
:10014000C324A5002636A400250CA300AF172B1747
:10015000AB172100013FB00002310800F30AF10A99
:10016000D520701B0F32701A0532D120031D1232B8
:1001700016242928F01E2928D120031D0B32F01245
:1001800000242928D120031D053270131624F30AF8
:10019000F10A29287608043EF700F30AF30AEE2351
:1001A000292820000C08083908003B00AB13210067
:1001B0000C14210003309D009D18DC2810309D0098
:1001C0001C08F01D02323B00AB17F6004A307602E5
:1001D000031C02324A30F60021000C100800FE0B0E
:1001E00020327B08FE007908F707031D0432F70A66
:1001F000F909F90A07327708523C03180332F7036A
:10020000F909F90A7A08F8073A3078020318033234
:10021000FA09FA0A06327808FA3C03180232FA0997
:10022000FA0AF30AF10A292821007735770719001D
:100230008936890E0F39073CF40001301900740823
:10024000031903328035890BFD33EC301900FB3084
:1002500019007808B421031816327808F33C031CFF
:1002600001322232F016AF0B0132701204307607E1
:10027000F700EB30F800FC30FA00083019000230CB
:1002800019009A206D32760819000A307607190095
:100290007708B421031C6432FC30FA0000240230D9
:1002A000190019009A205C324330190052301900AD
:1002B0007808B421031C09320008200503195032C4
:1002C0000009A0050930C22343324B3019005A30CF
:1002D00019007808B421031C09320008220503190B
:1002E0003F320009A2050630C223323253301900D2
:1002F000623019007808B421031C09320008240573
:1003000003192E320009A4050330C22321325B30C9
:1003100019006A3019007808B421031C093200085A
:10032000260503191D320009A6050230C22310322A
:1003300063301900723019007808B421031C1032A0
:100340000008280503190C320009A8050130C22352
:10035000FA09FA0A002401301900003019009A2025
:100360000231F30AF10A2928F400013F7402031C48
:1003700005320008F4020308013A83000231080044
:10038000F10A1E307102031D2928F201F30A2928FF
:10039000210072088936893619000F307D05DD236A
:1003A00000078F24AE007D0E0F39DD2300078F2458
:1003B000AD000F307C05DD2300078F24FE212D08C2
:1003C000FE212E08FE211430890BE4290C12013085
:1003D000890BE829EB290C160A30890BED292F0827
:1003E000DD2300078F24FE21F20A14307202031D60
:1003F0002928F201F30A1430F10729281900800D89
:100400001A3003180A308C00800D1A3003180A3095
:100410008C00800D1A3003180A308C000130890BD3
:100420000F2A01310C160800F01C0C32210010308C
:10043000890B182A1B2A0A308C005730890B1E2A78
:100440001A308C00F20A08307202031D2928F201CA
:10045000F30A0830F1072928F01C8132780871026C
:10046000031C0632083078077102031C1E32033267
:100470000230890B392A0D30890B3C2A21008C145B
:100480000C120130890B422A00000C161A308C0025
:100490005230890B492A4C2A21008C140C1201304D
:1004A000890B502A00000C165032210077080319DE
:1004B0002432523C03193632013077020319013ECF
:1004C000F4000A30890B622A0C120130890B662A6B
:1004D00074080C16890BFE330C120230890B6E2A3D
:1004E000000077080C16523C890BFE330C120130C9
:1004F000890B782A00000C1628320C30890B7E2AD2
:1005000000000C120430890B832A0C165030890B22
:10051000872A8A2A00000C120130890B8D2A0000DC
:100520000C1613320B30890B932A00000C12013089
:10053000890B982A00000C165230890B9D2A0C1248
:100540000330890BA12A00000C16F20AF10AFB30D5
:100550007102031D2928F2011330F3002928F20A41
:1005600010307202031D2928F201F30A1030F1073E
:1005700029283B001B1221002008F4001030890BB1
:10058000BF2A0E301900F435F50D1A300318083063
:100590008C000130890BCA2ACD2A800BF43301313B
:1005A0001A308C000130890BD32AF20A083072020B
:1005B000031D2928F201F30A0830F10729283B001E
:1005C0001B1621002208F4001030890BE52A0E309A
:1005D0001900F435F50D1A30031808308C0001307D
:1005E000890BF02AF32A800BF43301311A308C0086
:1005F0000130890BF92AF20A08307202031D2928FA
:10060000F201F30A0830F10729283B001B122100F0
:100610002408F4001030890B0B2B0E301900F43530
:10062000F50D1A30031818308C000130890B162B89
:10063000192B800BF43301311A308C000130890BF7
:100640001F2BF20A08307202031D2928F201F30A57
:100650000830F10729283B001B1621002608F4006A
:100660001030890B312B0E301900F435F50D1A308E
:10067000031808308C000130890B3C2B3F2B800B7A
:10068000F43301311A308C000130890B452BF20A0A
:1006900008307202031D2928F201F30A0830F1071D
:1006A000292821002808F4001030890B552B582BDD
:1006B0000E301900F435F50D1A3003180A308C008D
:1006C0000130890B612B642B800BF43301311A301C
:1006D0008C000130890B6A2B1A308C00F20A08302A
:1006E0007202031D2928F201F30A0830F1072928B4
:1006F0001130890B792B00006A30890B7D2B802B00
:100700001A308C00F10AF3307102031D2928F2011E
:10071000F30A29281230890B8B2B76080319023231
:10072000890BFE3321000C120A30890B952B982B74
:100730000C16F20A08307202031D2928F201F30A8E
:100740000830F1072928F10A031970147018A92B31
:100750002928F018B02B05307102031D2928BA2B67
:1007600006307102031D29283B000330B6008D308E
:10077000B500BF17F301F201F101701070150230DE
:10078000F0062928FD07831805320F307D05093C46
:10079000031802320630FD077D0E0F39093C03189D
:1007A00005326030FD07FC0A0130FB007C1C0800AC
:1007B00068307D02031970170800190089358935E2
:1007C00080071200080000308700A03086000C303F
:1007D000F400FF301E00F40BFD330800330CB00CA6
:1007E000B10CB20CB30CB31BFD2B5930B006F13079
:1007F000B106FF30B2067F30B3061F303005080067
:10080000EE230730300589350B0000300D32013002
:100810000B32FF3009320030073201300532FF3031
:100820000332FF3001320130F9000800FC01FD0104
:10083000E32321000330AF00FE01FE0AEB30F80095
:100840000024FC30FA000230FB007016F0120800A1
:0C085000890995000B110B1DFE330800F8
:04085C000034003430
:1008600085017030840003011A00841FFD33840168
:100870002030850003011A00051CFD332000B0095B
:10088000B109B209B309003085003030840050301E
:10089000950023008C010C14210020309E002400C0
:1008A0008C0121000C110C1022000C163B009F0142
:1008B000910192019701980196010730950004304B
:1008C000930094019F17C0309B003B00A101A2013F
:1008D000A701A8013030AE000D30A600FA30A50007
:1008E0002636A400250CA300AF173B00BF01B101C1
:1008F000B201B701B8011B30B5000730B600863031
:10090000B300B401D030BB00BF173C142000131358
:10091000210013170B178B17F00170158E2C0B008D
:100920004034A034A034A03440344034C034403487
:100930004034E034E0342034C0348034E034E034F7
:100940002034C0342034E034A034A034E0342034E7
:100950002034E0348034E0342034E034C034803457
:10096000E034A034E034E034203420342034203427
:10097000E034A034E034A034E034E034A034E03497
:100980002034603401000B008B34D3340D34FB343D
:02099000010064
:020000040001F9
:02000E00A73F0A
:02001000FF1ED1
:00000001FF
