:020000040000FA
:08000000362C01000100010093
:08000800701915280930890B5D
:10001000FE3300003B001B1221008C100530890BC1
:10002000FE3300008C1424000C1673080B003128DA
:1000300049285E286B287928B228F3281829CB296B
:10004000D3291F2A372AF42A102B2C2B482B642B58
:10005000822B8D2BA62B010024000C123B003D109F
:100060000900720803193E28F20A06307202031DC5
:100070002C28F201F30A0630F1072C283B0041300E
:10008000B300B4010330B6008D30B500BF17F20ADB
:100090002C28720803195628F20A06307202031D32
:1000A0002C28F201F30A0630F1072C283B00083017
:1000B000B3000330B400BF17F20A2C2872080319EA
:1000C0003E280630720203196728F20A2C28F30A28
:1000D000F201F01C2C2870113B008630B300B401F3
:1000E0000730B6001B30B500BF17F30A0930F10026
:1000F0002C28F30AF10AF01D2C28F01A8720210081
:10010000B10B2C28F0113B002B13AB132C28F01D46
:100110000800F01C08003B00A636A50CA436A30C72
:10012000AF170800F01D0800F01C08003B00A535C3
:10013000A60DA335A40DAF1708001900F0153B005C
:100140000008C924A600000AC924A5002636A40078
:10015000250CA300AF172B17AB172100013FB100EF
:1001600002310800F30AF10AD920701B0F32701A0D
:100170000532D520031D12321B242C28F01E2C28FA
:10018000D520031D0B32F01205242C28D520031D89
:10019000053270131B24F30AF10A2C287608043E5A
:1001A000F700F30AF30AF3232C2820000C0808397F
:1001B00008003B00AB1321000C14210003309D000C
:1001C0009D18E02810309D001C08F01D02323B00F5
:1001D000AB17F6004A307602031C02324A30F600B2
:1001E00021000C100800FE0B20327B08FE0079086D
:1001F000F707031D0432F70AF909F90A07327708ED
:10020000523C03180332F703F909F90A7A08F80790
:100210003A30780203180332FA09FA0A06327808EB
:10022000FA3C03180232FA09FA0AF30AF10A2C28F6
:1002300000308700A0308600210077357707890ECF
:100240000F39F40008307402031C0232F40041310B
:100250008030AC00740803190332AC36F40BFD3364
:10026000FA1B3432F6307802031C1132F016B00B50
:1002700002327012701704307607F700EB30F80086
:10028000FC30FA000830190002309D207532EC3045
:100290007802031C1B320230760219000A307607FE
:1002A00019007708BF21031C67327908FF00760820
:1002B0007702893789378937F9007F0603190524C2
:1002C000FC30FA00023019009D2056324A30F4000A
:1002D0007230F5000730FA1F0332F407F5070232D7
:1002E000F402F50274081900750819007808BF2196
:1002F000031C4232740878028936893689360B002D
:1003000005320D3216321F32283201002C08010549
:10031000031932322C0981050930C52327324231B5
:100320002C080105031928322C0981050630C52344
:100330001D3244312C08010503191E322C09810598
:100340000330C523133246312C080105031914323A
:100350002C0981050230C523093248312C080105DA
:1003600003190A322C0981050130C523FA09FA0A5A
:100370000130190000309D20F30AF10A2C28F50005
:10038000013F7502031C05320008F5020308013A1B
:10039000830002310800F10A1E307102031D2C286F
:1003A000F201F30A2C2821007208893689361900D7
:1003B0000F307D05E22300079524AF007D0E0F3935
:1003C000E22300079524AE000F307C05E2230007EE
:1003D000952409222E0809222F0809221430890B9E
:1003E000FE330C120130890BFE3300320C160A303A
:1003F000890BFE333008E223000795240922F20A14
:1004000014307202031D2C28F201F30A1430F10794
:100410002C281900800D1A3003180A308C00800D2A
:100420001A3003180A308C00800D1A3003180A3075
:100430008C000130890BFE3301310C160800F01CD2
:100440000C3221001030890BFE3300320A308C0050
:100450005730890BFE331A308C00F20A08307202D2
:10046000031D2C28F201F30A0830F1072C28F01C98
:10047000813278087102031C063208307807710255
:10048000031C1E3203320230890BFE330D30890B00
:10049000FE3321008C140C120130890BFE33000056
:1004A0000C161A308C005230890BFE3300322100BA
:1004B0008C140C120130890BFE3300000C165032E4
:1004C0002100770803192432523C031936320130D7
:1004D00077020319013EF4000A30890BFE330C1237
:1004E0000130890BFE3374080C16890BFE330C1295
:1004F0000230890BFE33000077080C16523C890B42
:10050000FE330C120130890BFE3300000C1628322A
:100510000C30890BFE3300000C120430890BFE33C3
:100520000C165030890BFE33003200000C120130E3
:10053000890BFE3300000C1613320B30890BFE338F
:1005400000000C120130890BFE3300000C165230F3
:10055000890BFE330C120330890BFE3300000C169E
:10056000F20AF10AFB307102031D2C28F20113304C
:10057000F3002C28F20A10307202031D2C28F2011D
:10058000F30A1030F1072C282830190050301900D8
:100590007208BF21031C08000530890BFE330000E0
:1005A000210028307202893689368936893519004A
:1005B000CF24F4001200890ACF24F5000830E3228A
:1005C0001A308C000800190010301900F535F40DB0
:1005D0001A300318013F8C000230890BFE330000F3
:1005E000800BF433023108003B001B12210020086D
:1005F000F4002108F5000D30890BFE33003208307D
:10060000E3221A308C000130890BFE33F20A0830E5
:100610007202031D2C28F201F30A0830F1072C287E
:100620003B001B1621002208F4002308F5000D30C2
:10063000890BFE3300320830E3221A308C0001307F
:10064000890BFE33F20A08307202031D2C28F201D6
:10065000F30A0830F1072C283B001B162100240860
:10066000F4002508F5000D30890BFE3300321830F8
:10067000E3221A308C000130890BFE33F20A083075
:100680007202031D2C28F201F30A0830F1072C280E
:100690003B001B1221002608F4002708F5000D304E
:1006A000890BFE3300320830E3221A308C0001300F
:1006B000890BFE33F20A08307202031D2C28F20166
:1006C000F30A0830F1072C283B001B1621002808EC
:1006D000F4002908F5000D30890BFE330032083094
:1006E000E3221A308C000130890BFE331A308C0063
:1006F000F20A08307202031D2C28F201F30A0830B6
:10070000F1072C28701BC422F20AF10AF33071029F
:10071000031D2C28F201F30A2C281230890BFE331A
:10072000760803190232890BFE3321000C120A30BD
:10073000890BFE3300320C16F20A08307202031DD8
:100740002C28F201F30A0830F1072C28F10A0319CA
:1007500070147018AC2B2C28F018B32B05307102D4
:10076000031D2C28BD2B06307102031D2C283B00D5
:100770000330B6008D30B500BF17F301F201F1016F
:10078000701070150230F0062C28FD078318053212
:100790000F307D05093C031802320630FD077D0E3F
:1007A0000F39093C031805326030FD07FC0A01309F
:1007B000FB0003307C02031D080036307D02031964
:1007C0007017080019008935893580071200080064
:1007D00000308700A03086000C30F400FF301E008F
:1007E000F40BFD33080020003108F4008935893509
:1007F000F500F406F5357508F406F5357535F4069B
:10080000F435B00DB10D30080800F3230730300582
:1008100089350B0000300D3201300B32FF300932C8
:100820000030073201300532FF300332FF30013231
:100830000130F9000800FC01FD01E823210003302C
:10084000B000FE01FE0AEB30F8000524FC30FA008F
:100850000230FB007016F012701308008909950031
:080860000B110B1DFE33080013
:040868000034003424
:04086C008501703062
:10087000840003011A00841FFD33840120308500A9
:1008800003011A00051CFD332000B009B109B209AB
:10089000B3090030850030308400503095002300CB
:1008A0008C010C14210020309E0024008C012100BA
:1008B0000C110C1022000C163B009F0191019201BB
:1008C0009701980196010730950004309300940138
:1008D0009F17C0309B003B00A101A201A701A80106
:1008E0003030AE000D30A600FA30A5002636A40048
:1008F000250CA300AF173B00BF01B101B201B70146
:10090000B8011B30B5000730B6008630B300B40123
:10091000D030BB00BF173C14200013132100131765
:100920000B178B17F0017015942C0B004034A0347A
:10093000A034A03440344034C03440344034E03437
:10094000E0342034C0348034E034E0342034C03427
:100950002034E034A034A034E03420342034E034B7
:100960008034E0342034E034C0348034E034A034C7
:10097000E034E0342034203420342034E034A03417
:10098000E034A034E034E034A034E0342034603487
:1009900001000B008B34D3340D34FB3401000B0009
:1009A000E834C8348E34A834EA34A8348A34A03405
:0409B000EA34C83429
:020000040001F9
:02000E00A73F0A
:02001000FF1ED1
:00000001FF
