:020000040000FA
:08000000F92B010001000100D1
:08000800701912280A30890B5F
:10001000072821008C100530890B0C2800008C1457
:1000200024000C1673080B002E2846285B2868282D
:100030007728A428C928652971297929C229DA29AC
:10004000682A922ABC2AE62A102B3A2B4E2B672BC1
:10005000010024000C123B003D1009007208031936
:100060003B28F20A06307202031D2928F201F30A26
:100070000630F10729283B004130B300B4010330BA
:10008000B6008D30B500BF17F20A2928720803198F
:100090005328F20A06307202031D2928F201F30ADE
:1000A0000630F10729283B000830B3000330B400C4
:1000B000BF17F20A2928720803193B28063072027A
:1000C00003196428F20A2928F30AF201F01C2928EE
:1000D00070113B008630B300B4010730B6001B300E
:1000E000B500BF17F30AFF0A0930F1002928F30A07
:1000F000F10A9120701A05328D20031D0A32DC238B
:100100002928F01E29288D20031D0332F012C62352
:100110002928F30AF30AB423292820000C080839F7
:10012000080021000C14210003309D009D18962822
:100130001D101C08F6004A307602031C02324A30B9
:10014000F60021000C100800FE0B20327B08FE0098
:100150007908F707031D0432F70AF909F90A07328B
:100160007708523C03180332F703F909F90A7A08B1
:10017000F8073A30780203180332FA09FA0A06320D
:100180007808FA3C03180232FA09FA0AF30AF10A6B
:1001900029282100773577078936890E0F39073CE2
:1001A000F400013019007408031903328035890BFB
:1001B000FD33EC301900FB30190078085921031881
:1001C00011327808F33C031C01321932F016A80BE7
:1001D0000132701204307607F700EB30F800FC3083
:1001E000FA0063327608190008307607190077089C
:1001F0005921031C5A32FC30FA00C62356324330D0
:1002000019005230190078085921031C09320008DE
:10021000200503194A320009A00509309123433211
:100220004B3019005A30190078085921031C093243
:1002300000082105031939320009A1050630912370
:100240003232533019006230190078085921031CEA
:10025000093200082205031928320009A2050330DB
:10026000912321325B3019006A3019007808592136
:10027000031C093200082305031917320009A305DE
:10028000023091231032633019007230190078085F
:100290005921031C0A3200082405031906320009FB
:1002A000A40501309123FA09FA0A1200F30AF10AAF
:1002B0002928F400013F7402031C05320008F402EF
:1002C0000308013A830002310800F30AF10AF01D25
:1002D00029282100A90B2928F0113B002B13AB136F
:1002E0002928F10A1E307102031D2928F201F30AA0
:1002F0002928210072088936893619000F307D05BA
:10030000A32300074724A7007D0E0F39A32300076E
:100310004724A6000F307C05A32300074724AF2104
:100320002608AF212708AF211430890B95290C121C
:100330000130890B99299C290C160A30890B9E29BA
:100340002808A32300074724AF21F20A14307202C1
:10035000031D2928F201F30A1430F1072928890D19
:1003600003180C12031C0C16890D03180C12031C25
:100370000C16890D03180C12031C0C1600320032E7
:100380000C160800F01C0C3221001030890BC62915
:10039000C9298C140C125730890BCC298C140C16DB
:1003A000F20A08307202031D2928F201F30A08300C
:1003B000F1072928F01C823278087102031C0632EA
:1003C000083078077102031C1E3203320230890B99
:1003D000E7290D30890BEA2921008C140C12013019
:1003E000890BF02900000C168C140C165230890B66
:1003F000F729FA2921008C140C120130890BFE29EF
:1004000000000C1651322100770803192432523CA7
:1004100003193632013077020319013EF4000A3025
:10042000890B102A0C120130890B142A74080C163F
:10043000890BFE330C120230890B1C2A1F2A0C1662
:100440007708523C890BFE330C120130890B262AA7
:1004500000000C1629320C30890B2C2A00000C12DB
:100460000430890B312A0C165030890B352A382A72
:1004700000000C120130890B3B2A00000C161432CC
:100480000B30890B412A00000C120130890B462ADF
:1004900000000C165230890B4B2A4E2A00000C1219
:1004A0000430890B512A0C16F20AF10AFB30710252
:1004B000031D2928F2011330F3002928F20A103015
:1004C0007202031D2928F201F30A1030F1072928CE
:1004D0003B001B1221002008F4001030890B6E2A0B
:1004E000000008301900F435031C04320C128C1083
:1004F000000003328C140C1600320730890B7E2A60
:10050000800BF13301318C140C160130890B862AD3
:10051000F20A08307202031D2928F201F30A08309A
:10052000F10729283B001B1621002108F400103098
:10053000890B982A000008301900F435031C043296
:100540000C128C10000003328C140C160032073091
:10055000890BA82A800BF13301318C140C16013061
:10056000890BB02AF20A08307202031D2928F20111
:10057000F30A0830F10729283B001B12210022084A
:10058000F4001030890BC22A000008301900F4353D
:10059000031C04320C168C10000003328C140C1651
:1005A00000320730890BD22A800BF13301318C14D1
:1005B0000C160130890BDA2AF20A08307202031D88
:1005C0002928F201F30A0830F10729283B001B16FD
:1005D00021002308F4001030890BEC2A00000830B9
:1005E0001900F435031C04320C168C100000033281
:1005F0008C140C1600320730890BFC2A800BF13367
:1006000001318C140C160130890B042BF20A0830CE
:100610007202031D2928F201F30A0830F107292884
:1006200021002408F4001030890B142B172B0830FC
:100630001900F435031C04328C140C120000033230
:100640008C140C1600320730890B242B800BF133ED
:1006500001318C140C160130890B2C2B8C140C16C8
:10066000F20A08307202031D2928F201F30A083049
:10067000F10729281130890B3B2B00006A30890BC8
:100680003F2B422B8C140C16F20A80307202031D91
:100690002928F201F30A8030F10729281230890B4A
:1006A0004F2B760803190232890BFE3321000C12FE
:1006B0000A30890B592B5C2B0C16F20A0830720297
:1006C000031D2928F201F30A0830F1072928F10A4D
:1006D0000319701470186D2B2928F018742B05302D
:1006E0007102031D29287E2B06307102031D292863
:1006F0003B000330B6008D30B500BF17F301F201A7
:10070000F101701070150230F0062928803D0A3082
:100710000002031C0800063080070F308005031418
:100720000800190003100F307D058623030119000E
:100730007D0E0F3986230318FC0A1200890E00046F
:10074000FD00013108001900893589358007120044
:10075000080000308700A03086000530F400FF302C
:100760001E00F40BFD330800330CB00CB10CB20CBE
:10077000B30CB31BC32B5930B006F130B106FF30B8
:10078000B2067F30B3061F3030050800B4230730AF
:10079000300589350B0000300D3201300B32FF304F
:1007A00009320030073201300532FF300332FF30AA
:1007B00001320130F9000800FC01FD01A9232100EC
:1007C0000330A800FE01FE0A04307607F700EB3084
:1007D000F800C623FC30FA000230FB007016F0125D
:0E07E0000800890995000B110B1DFE3308005F
:0207EE000034D5
:0207F0000034D3
:0E07F20085017030840003011A00841FFD335E
:1008000084012030850003011A00051CFD332000FF
:10081000B009B109B209B309003085003030840055
:100820005030950023008C010C14210020309E00D4
:1008300024008C0121000C1122000C163B009F01AA
:1008400091019201970198019601073095000430BB
:10085000930094019F17C0309B003B00BF01B10182
:10086000B201B701B8011B30B5000730B6008630C1
:10087000B300B401D030BB00BF173C1420001313E9
:10088000210013170B178B17F0017015462C0B0066
:100890004034A034A034A03440344034C034403418
:1008A0004034E034E0342034C0348034E034E03488
:1008B0002034C0342034E034A034A034E034203478
:1008C0002034E0348034E0342034E034C0348034E8
:1008D000E034A034E034E0342034203420342034B8
:1008E000E034A034E034A034E034E034A034E03428
:0408F000203460341C
:020000040001F9
:02000E00A73F0A
:02001000FF1ED1
:00000001FF
