:020000040000FA
:08000000122B010001000100B8
:08000800F01A12280A30890BDE
:10001000072821008C100530890B0C2800008C1457
:1000200024000C168A01730882072E2846285B28B4
:100030006828762891289D28A028A828F128082932
:100040002D296B29A929E729252A642A892ABD2A6D
:10005000010024000C123B003D1009007208031936
:100060003B28F20A06307202031D2928F201F30A26
:100070000630F10729283B004130B300B4010330BA
:10008000B6008D30B500BF17F20A2928720803198F
:100090005328F20A06307202031D2928F201F30ADE
:1000A0000630F10729283B000830B3000330B400C4
:1000B000BF17F20A2928720803193B28063072027A
:1000C00003196428F20A2928F30AF201F01C2928EE
:1000D000F0123B008630B300B4010730B6001B308D
:1000E000B500BF17F30A0930F1002928F30AF10A15
:1000F00070197E2822008C1D7015292821000C14EF
:10010000210003309D009D1883281D101C08F60057
:100110005C307602031C02325C30F60021000C10C9
:100120002928F30AF10A701E29282100A40B292886
:1001300070123B002B13AB132928F30AF10A29286C
:10014000F10A1A307102031D2928F201F30A292845
:10015000210072088936893619000F307D05F92291
:1001600000076923A2007D0E0F39F92200076923D9
:10017000A1000F307C05F92200076923DE20210849
:10018000DE202208DE201430890BC4280C12013036
:10019000890BC828CB280C160A30890BCD282308D8
:1001A000F92200076923DE20F20A14307202031DCF
:1001B0002928F201F30A1430F1072928890D0318C0
:1001C0000C12031C0C16890D03180C12031C0C16C0
:1001D000890D03180C12031C0C16003200320C1689
:1001E00008000530890BF228000021008C140C1245
:1001F0006E30890BF92821008C140C16F20A083095
:100200007202031D2928F201F30A0830F107292898
:100210000530890B0929000021008C140C120130D3
:10022000890B102900000C1621008C140C16693063
:10023000890B18291B2921008C140C120130890B01
:100240001F2900000C16F20A10307202031D292823
:10025000F201F30A1030F10729283B001B1220009D
:100260003008F4000330890B3329362921008C141F
:100270000C120130890B3A2900000C1608301900C5
:10028000F435031C043221000C128C1005320000DE
:1002900021008C140C1600320930890B4D29000006
:1002A000800BEE33013121008C140C160130890BC8
:1002B000572921008C140C120130890B5D29000094
:1002C0000C16F20A08307202031D2928F201F30A03
:1002D0000830F10729283B001B1620003108F400E4
:1002E0000330890B7129742921008C140C12013000
:1002F000890B782900000C1608301900F435031C0E
:10030000043221000C128C100532000021008C14E4
:100310000C1600320930890B8B290000800BEE335C
:10032000013121008C140C160130890B9529210014
:100330008C140C120130890B9B2900000C16F20A58
:1003400008307202031D2928F201F30A0830F10770
:1003500029283B001B1220003208F4000330890BCF
:10036000AF29B22921008C140C120130890BB62957
:1003700000000C1608301900F435031C043221006B
:100380000C168C100532000021008C140C16003263
:100390000930890BC9290000800BEE33013121009F
:1003A0008C140C160130890BD32921008C140C12EB
:1003B0000130890BD92900000C16F20A08307202AC
:1003C000031D2928F201F30A0830F10729283B0010
:1003D0001B1620003308F4000330890BED29F029A7
:1003E00021008C140C120130890BF42900000C162A
:1003F00008301900F435031C043221000C168C104F
:100400000532000021008C140C1600320930890BD3
:10041000072A0000800BEE33013121008C140C16EA
:100420000130890B112A21008C140C120130890B28
:10043000172A00000C16F20A08307202031D292840
:10044000F201F30A0830F107292820003408F400EB
:100450000430890B292A000021008C140C12013071
:10046000890B302A00000C1608301900F435031CE3
:10047000043221008C140C120532000021008C146F
:100480000C1600320930890B432A0000800BEE3332
:10049000013121008C140C160130890B4D2A2100EA
:1004A0008C140C120130890B532A00000C16210009
:1004B0008C140C16F20A08307202031D2928F2016E
:1004C000F30A0830F10729280530890B652A000056
:1004D00021008C140C120130890B6C2A00000C16C0
:1004E0006A30890B712A742A21008C140C12013095
:1004F000890B782A00000C1621008C140C16F20AC5
:1005000076307202031D2928F201F30A7630F107D2
:1005100029280530890B8A2A000021008C140C122E
:100520000130890B912A00000C16760803190C1271
:1005300003190432890BFE3300000C120A30890BB8
:100540009F2AA22A76085C3C0000031904320000AE
:100550000C16890BFE3321008C140C120130890B10
:10056000AF2A00000C16F20A08307202031D292877
:10057000F201F30A0830F1072928F10A031970146F
:100580007018C32A2928F018CA2A05307102031DE1
:100590002928D42A06307102031D29283B00033084
:1005A000B6008D30B500BF17F301F201F1017010F4
:1005B000F0160230F0062928803D0A300002031CA4
:1005C0000800063080070F3080050314080019006A
:1005D00003100F307D05DC22030119007D0E0F3959
:1005E000DC220318FC0A1200890E0004FD00013110
:1005F000080019008935893580071200080000308D
:100600008700303086000530F400FF301E00F40B08
:10061000FD330800890995000B110B1DFE330800FE
:04062000003400346E
:0C06240085017030840003011A00841F5F
:10063000FD3384012030850003011A00051CFD33C1
:10064000FF220030850030308400503095002300B8
:100650008C010C14210020309E0024008C018C158C
:1006600021000C1122000C163B009F019101920108
:10067000970198019601073095000430930094018A
:100680009F17C0309B003B00BF01B101B201B70111
:10069000B8011B30B5000730B6008630B300B40196
:1006A000D030BB00BF173C142000131321001317D8
:1006B0000B178B17F014F01621000330A3003C3009
:1006C0002100A4007016701AFE330130E722F733C0
:1006D000682B0B004034A034A034A03440344034A4
:1006E000C03440344034E034E0342034C03480340A
:1006F000E034E0342034C0342034E034A034A0347A
:10070000E03420342034E0348034E0342034E034E9
:10071000C0348034E034A034E034E0342034203479
:1007200020342034E034A034E034A034E034E03429
:08073000A034E03420346034F1
:020000040001F9
:02000E00A73F0A
:02001000FF3EB1
:00000001FF
