:020000040000FA
:08000000152C010001000100B4
:08000800F10A031970147019CC
:10001000162806308D2300323B001B1221008C1065
:1000200003308D2300328C1424000C1673080B004F
:10003000322848285B2868287528AD28EC28102924
:10004000C229C9290F2A232AA52ABC2AD32AEA2A87
:10005000012B1A2B5C2B712B010024000C123B008E
:100060003D100900720803193D28F20A0630720299
:10007000031D2D28F201F30A2D283B004130B30067
:10008000B4010330B6008D30B500BF17F20A2D2839
:10009000720803195328F20A06307202031D2D2834
:1000A000F201F30A2D283B000830B3000330B400FE
:1000B000BF17F20A2D28720803193D280630720274
:1000C00003196428F20A2D28F30AF201F01C2D28E6
:1000D00070113B008630B300B4010730B6001B300E
:1000E000B500BF17F30AF1362D28F30AF01D2D28AD
:1000F000F01A82202100B20B2D28F0113B002B13A7
:10010000AB132D28F01D0800F01C08003B00A6369C
:10011000A50CA436A30CAF170800F01D0800F01CB6
:1001200008003B00A535A60DA335A40DAF170800A8
:100130001900F0153B000008A824A600000AA82416
:10014000A5002636A400250CA300AF172B17AB176C
:100150002100013FB20002310800F30AD220701BD7
:100160000F32701A0532CE20031D1132FB232D28C9
:10017000F01E2D28CE20031D0A32F012E5232D2873
:10018000CE20031D04327013FB23F30A2D287608BA
:10019000043EF700F30AF30AD3232D2820000C08AD
:1001A000083908003B00AB1321000C142100033078
:1001B0009D009D18D92810309D001C08F01D0232AA
:1001C0003B00AB17F6004A307602031C02324A307D
:1001D000F60021000C100800FE0B20327B08FE0008
:1001E0007908F707031D0432F70AF909F90A0732FB
:1001F0007708523C03180332F703F909F90A7A0821
:10020000F8073B30780203180332FA09FA0A06327B
:100210007808FB3C03180232FA09FA0AF30A2D287F
:1002200000308700A0308600210077357707890EDF
:100230000F39F40008307402031C0232F40041311B
:100240008030AC00740803190332AC36F40BFD3374
:10025000FA1B3432F7307802031C1132F016B10B5E
:1002600002327012701704307607F700EC30F80095
:10027000FC30FA0008301900023098207532ED3059
:100280007802031C1B320230760219000A3076070E
:1002900019007708B621031C67327908FF00760839
:1002A0007702893789378937F9007F060319E523F3
:1002B000FC30FA0002301900982056324A30F4001F
:1002C0007230F5000730FA1F0332F407F5070232E7
:1002D000F402F50274081900750819007808B621AF
:1002E000031C4232740878028936893689360B003D
:1002F00005320D3216321F32283201002C0801055A
:10030000031932322C0981050930A32327324231E7
:100310002C080105031928322C0981050630A32376
:100320001D3244312C08010503191E322C098105A8
:100330000330A323133246312C080105031914326C
:100340002C0981050230A323093248312C0801050C
:1003500003190A322C0981050130A323FA09FA0A8C
:100360000130190000309820F30A2D28F500013FD4
:100370007502031C05320008F5020308013A8300E8
:10038000023108001F307102031D2D28F201F30A0B
:100390002D28210072088936893619000F307D0515
:1003A000C22300077424AF007D0E0F39C22300075B
:1003B0007424AE000F307C05C22300077424FA2198
:1003C0002E08FA212F08FA2112308D2300000C127A
:1003D00092230C1608308D2300003108C223000739
:1003E0007424FA21F20A14307202031D2D28F2013E
:1003F000F30A2D281900800D1A3003180A308C00DA
:10040000800D1A3003180A308C00800D1A30031842
:100410000A308C000000003201310C160800F01C7C
:100420000A3221000F308D2300320A308C00583000
:100430008D231A308C00F20A08307202031D2D2819
:10044000F201F30A2D28F01C6A3221000430190051
:100450000A301900770878087102031C0632083048
:1004600078077102031C1532013291230B308D2362
:10047000000021008C140C1293230C161A308C00EF
:1004800053308D23003221008C140C1293230C1650
:100490003D32770803191D32523C03192A320130CC
:1004A00077020319013EF40008308D2300000C127E
:1004B0000000003274080C16890BFE330C129023D6
:1004C00077080C16523C890BFE330C1293230C1642
:1004D0001D320A308D2300320C1202308D230000B1
:1004E0000C1651308D23003200000C1293230C1691
:1004F0000D3209308D2300320C1293230C16533029
:100500008D230C1201308D2300320C16F20AFC30C0
:100510007102031D2D28F2011330F3002D28F20A79
:1005200010307202031D2D28F201F30A2D28190044
:1005300010301900F535F40D1A300318013F8C0006
:100540009023800BF733023108003B001B1221007F
:100550002008F4002108F5000C308D230830972284
:100560001A308C0000000032F20A08307202031DBB
:100570002D28F201F30A2D283B001B16210022082A
:10058000F4002308F5000C308D23083097221A3030
:100590008C0000000032F20A08307202031D2D2880
:1005A000F201F30A2D283B001B1621002408F40059
:1005B0002508F5000C308D23183097221A308C0056
:1005C00000000032F20A08307202031D2D28F201E9
:1005D000F30A2D283B001B1221002608F4002708EF
:1005E000F5000C308D23083097221A308C00000063
:1005F0000032F20A08307202031D2D28F201F30ABC
:100600002D283B001B1621002808F4002908F500BE
:100610000C308D23083097221A308C0000000032F5
:100620001A308C00F20A08307202031D2D28F201E4
:10063000F30A2D2828301900503019007208B6210D
:10064000031C1332701F11320830190010301900CA
:10065000F01F063284308700BD3086003D2305320E
:1006600084308700AE3086003D23F20AF4307102F8
:10067000031D2D28F201F30A2D28210028307202D3
:10068000893689368936F400893574078607031858
:10069000870A1600AD001600AE001600AF00AF3599
:1006A000AE0DAD0D1A300318013F8C00800BF733EF
:1006B00002311A308C00080010308D2300007608BB
:1006C00003190232890BFE3321000C1209308D23ED
:1006D0000C16F20A08307202031D2D28F201F30AEB
:1006E0002D287018742B2D28F0187B2B05307102E3
:1006F000031D2D28852B06307102031D2D283B007C
:100700000330B6008D30B500BF17F301F201F101DF
:10071000701070150230F0062D28890BFE3308008A
:100720000000000000000800F400F501C0301900CE
:10073000000874020318F400F50D8036031CF8332A
:10074000013175080800FD07831805320F307D055B
:10075000093C031802320630FD077D0E0F39093CB3
:10076000031805326030FD07FC0A0130FB0003303E
:100770007C02031D080036307D02031D080070173F
:10078000F017080019008935893580071200080024
:1007900000308700A03086000C30F400FF301E00CF
:1007A000F40BFD33080020003108F4008935893549
:1007B000F500F406F5357508F406F5357535F406DB
:1007C000F435B00DB10D30080800D32307303005E3
:1007D00089350B0000300D3201300B32FF30093209
:1007E0000030073201300532FF300332FF30013272
:1007F0000130F9000800FC01FD01C823210003308D
:10080000B100FE01FE0AEC30F800E523FC30FA00EE
:100810000230FB00F00170160800890995000B11E9
:060820000B1DFE33080071
:040826000034003466
:06082A008501703084001E
:1008300003011A00841FFD33840120308500030169
:100840001A00051CFD332000B009B109B209B30933
:1008500000308500303084005030950023008C013A
:100860000C14210020309E0024008C0121000C116A
:100870000C1022000C163B009F0191019201970180
:1008800098019601073095000430930094019F175A
:10089000C0309B003B00A101A201A701A80130309C
:1008A000AE000D30A600FA30A5002636A400250CB7
:1008B000A300AF173B00BF01B101B201B701B801FE
:1008C0001B30B5000730B6008630B300B401D0301D
:1008D000BB00BF173C1420001313210013170B1784
:1008E0008B17F0017015732C0B004034A034A0342A
:1008F000A03440344034C03440344034E034E03438
:100900002034C0348034E034E0342034C034203427
:10091000E034A034A034E03420342034E034803497
:10092000E0342034E034C0348034E034A034E034A7
:10093000E0342034203420342034E034A034E03457
:10094000A034E034E034A034E034203460340100DA
:100950000B008B34D3340D34FB340100E800C800A5
:1009600000008E00A8000000EA00A80000008A0035
:10097000A0000000EA00C8000000EE00E80000004F
:100980008A00A80000008A00A80000008A00A800D1
:080990000000EE00EE00000083
:020000040001F9
:02000E00A73F0A
:02001000FF1ED1
:00000001FF
