:020000040000FA
:08000000272A010001000100A4
:08000800F01A11280330890BE6
:10001000072800003B001B170130890B0D28102812
:100020001B138A01730882072B2843285828652848
:1000300073288928932896289E28BA28D628FD2830
:1000400024294B2972299929C029E729062A010068
:100050003B003D100900720803193828F20A0630E7
:100060007202031D2828F201F30A0630F10728283E
:100070003B002030B300B4010130B600C630B500FB
:10008000BF17F20A2828720803195028F20A06300E
:100090007202031D2828F201F30A0630F10728280E
:1000A0003B008330B3000130B400BF17F20A2828A8
:1000B0007208031938280630720203196128F20AFF
:1000C0002828F30AF201F01C2828F0123B004230E5
:1000D000B300B4010330B6008D30B500BF17F30A8A
:1000E0000930F1002828F30AF10A70197B28220050
:1000F0008C1D7015282821000C14210003309D0050
:100100009D1880281D101C36F600F63621000C10B4
:100110002828F30AF10A701E2828F50B28283B002E
:100120002B13AB132828F30AF10A2828F10A1A30F6
:100130007102031D2828F201F30A28280330890BD5
:100140009F28000022000C123B001B1300003630D9
:10015000890BA828AB2822000C123B001B130000BF
:10016000F20A18307202031D2828F201F30A18302F
:10017000F10728280330890BBB28000022000C1649
:100180003B001B1300003630890BC428C72822000F
:100190000C123B001B130000F20A08307202031D10
:1001A0002828F201F30A0830F10728280330890BC8
:1001B000D728000022000C163B001B130000E0288B
:1001C00022000C123B001B1300003230890BE62882
:1001D00022000C163B001B130000EE2822000C121C
:1001E0003B001B130000F20A10307202031D282886
:1001F000F201F30A1030F10728280330890BFE289A
:10020000000022000C163B001B13000007292200EF
:100210000C163B001B121B173230890B0D292200D4
:100220000C163B001B130000152922000C123B008A
:100230001B130000F20A08307202031D2828F20185
:10024000F30A0830F10728280330890B252900001C
:1002500022000C163B001B1300002E2922000C125A
:100260003B001B161B173230890B342922000C1659
:100270003B001B1300003C2922000C123B001B1307
:100280000000F20A08307202031D2828F201F30A66
:100290000830F10728280330890B4C290000220080
:1002A0000C163B001B130000552922000C123B00CA
:1002B0001B121B173230890B5B2922000C163B00E6
:1002C0001B130000632922000C123B001B130000CB
:1002D000F20A08307202031D2828F201F30A0830DE
:1002E000F10728280330890B7329000022000C161F
:1002F0003B001B1300007C2922000C163B001B1640
:100300001B173230890B822922000C163B001B136D
:1003100000008A2922000C123B001B130000F20A85
:1003200008307202031D2828F201F30A0830F10791
:1003300028280330890B9A29000022000C163B0064
:100340001B130000A32922000C163B001B13000006
:100350003230890BA92922000C163B001B13000028
:10036000B12922000C123B001B130000F20A0830D6
:100370007202031D2828F201F30A0830F107282829
:100380000330890BC129000022000C163B001B130F
:100390000000CA2922000C123B001B13000032305F
:1003A000890BD02922000C163B001B130000D82912
:1003B00022000C123B001B130000F20A763072027E
:1003C000031D2828F201F30A7630F10728280330AC
:1003D000890BE82976080319EF29890BED292200FA
:1003E0000C163B001B121B170430890BF529220049
:1003F0000C123B001B130000F20A08307202031DAE
:100400002828F201F30A0830F1072828F10A031915
:10041000701470180C2A2828F018132A053071025D
:10042000031D28281D2A06307102031D28283B00C1
:100430000130B600C630B500BF17F301F201F1017B
:0A0440007010F0160230F0062828B4
:04044A000034003446
:02044E0070300C
:10045000840085018001840A841F2A2A23008C01DC
:100460000C14210020309E0021008C100C110C1265
:1004700022000C120C153B009F0191019201970183
:1004800098019601033095000230930094019F1764
:1004900080309B003B00BF01B101B201B701B80140
:1004A0008D30B5000330B6004230B300B401D03017
:1004B000BB00BF173C1420001313210013170B17A8
:1004C0008B17F014F016632AF40082308A00740847
:1004D00082070034043408340C34103414341834D3
:1004E0001C342034243428342C343034343438341C
:0604F0003C3440344434AA
:020000040001F9
:02000E00A73F0A
:02001000FF3EB1
:00000001FF
