:020000040000FA
:08000000492C01000100010080
:08000800F10A031970147019CC
:100010001C282100A001A101A201A301A401A501A6
:100020000430CC2300323B001B1221008C10033023
:10003000CC238C1424000C1673080B0035284B2895
:100040005E286B2878287A28A728F5286A29AF29FE
:10005000AE2AD02AFD2A342B4F2B912BB02B010036
:1000600024000C123B003D100900720803194028BF
:10007000F20A06307202031D3028F201F30A30281A
:100080003B004130B300B4010330B6008D30B50001
:10009000BF17F20A3028720803195628F20A0630F0
:1000A0007202031D3028F201F30A30283B000830A9
:1000B000B3000330B400BF17F20A302872080319E6
:1000C00040280630720203196728F20A3028F30A22
:1000D000F201F01C302870113B008630B300B401EF
:1000E0000730B6001B30B500BF17F30AF1363028D1
:1000F000F30A3028F30AF01D3028F01A8720210077
:10010000DE0B3028F0113B002B13AB133028F01D11
:100110000800F01C08003B00A636A50CA436A30C72
:10012000AF1708001900F0153B000008E424A600F2
:10013000000AE424A5002636A400250CA300AF176E
:100140002B17AB172100013FDE0002310800F30A34
:10015000CB20701B0F32701A0532C720031D0F32DF
:100160002F243028F01E3028C720031D0832F0123B
:1001700019243028C720031D02322F243028760886
:10018000023EF7005921F30AF30A07243028200021
:100190000C08083908003B00AB1321000C142100A7
:1001A00003309D009D18D22810309D001C36F600AB
:1001B0002A3076022A300318F600F01D02323B0086
:1001C000AB1721000C10E5200800763689368936F9
:1001D000D800FC30D900DA01073076050319080091
:1001E000D936DA0C890BFC330800FE0B39327B0858
:1001F000FE007908F707F91F0632F71F0B32F701E7
:10020000F909F90A073277082E3C03180332F7037D
:10021000F909F90A7A08F807FA1F09323A30780220
:1002200003181E323A30F800FA09FA0A193278082F
:10023000E93C03181532332103181232F01621005D
:10024000DF0B02327012701702307607F700EB30C6
:10025000F800FC30FA000830190002309220F30A4E
:100260005921F30A30287608031989031900760802
:10027000063E19007708A121031802320310080076
:10028000EA30F800FA09FA0A76087702031C093204
:100290000319073204307607770201300318F9009A
:1002A0000232FF30F900023019009220F30A0314E1
:1002B00008002100773689368936DB00C030DC0043
:1002C000DD010730770503190800DC36DD0C890BEA
:1002D000FC3308004A3019007A3019007808A1214F
:1002E000031C2D3221008701A73086004A30780296
:1002F000F839190086075B088607F0307719890EF0
:10030000010503191C320F307719890E8105FA098E
:10031000FA0A7A08F8071200893689360B00093084
:100320000932093007320730053205300332033015
:1003300001320130D3230130190000309220F30A3A
:100340003028F500013F7502031C07320008F50252
:100350000308013A8300023108000032FC331D30EB
:100360007102031D3028F201F30A302878081900C1
:10037000083E19007108A1210800A0351A300318A1
:1003800057088C00A0351A30031857088C00A03588
:100390001A30031857088C00A0351A300318570874
:1003A0008C00A0351A30031857088C00A0351A307D
:1003B000031857088C00A0351A30031857088C0012
:1003C000A0351A30031857088C00A1351A300318CD
:1003D00057088C00A1351A30031857088C00A13536
:1003E0001A30031857088C00A1351A300318570823
:1003F0008C00A1351A30031857088C00A1351A302B
:10040000031857088C00A1351A30031857088C00C0
:10041000A1351A30031857088C00A2351A3003187A
:1004200057088C00A2351A30031857088C00A235E3
:100430001A30031857088C00A2351A3003185708D1
:100440008C00A2351A30031857088C00A2351A30D8
:10045000031857088C00A2351A30031857088C006F
:10046000A2351A30031857088C00A3351A30031828
:1004700057088C00A3351A30031857088C00A33591
:100480001A30031857088C00A3351A300318570880
:100490008C00A3351A30031857088C00A3351A3086
:1004A000031857088C00A3351A30031857088C001E
:1004B000A3351A30031857088C00A4351A300318D6
:1004C00057088C00A4351A30031857088C00A4353F
:1004D0001A30031857088C00A4351A30031857082F
:1004E0008C00A4351A30031857088C00A4351A3034
:1004F000031857088C00A4351A30031857088C00CD
:10050000A4351A30031857088C00A5351A30031883
:1005100057088C00A5351A30031857088C00A535EC
:100520001A30031857088C00A5351A3003185708DD
:100530008C00A5351A30031857088C00A5351A30E1
:10054000031857088C00A5351A30031857088C007B
:10055000A5351A30031857088C00080021007208CE
:100560008936893619000F307C05AA24A0047D0E37
:100570000F39AA24890EA0040F307D05AA24A104F6
:100580005F08AA24A5040130CC230032BD2101312B
:10059000F20A14307202031D3028F201F30A3028E7
:1005A0002100A009A109A209A309A409A5090A30EB
:1005B000D7001530CC2300320A308C00BD210A3020
:1005C0008C00D2231A308C00F20A08307202031D0C
:1005D0003028F201F30A3028B621031C0A328701C1
:1005E000A03086005B0886075C081E005D08C03FDF
:1005F00008000130CC23000008002100EC220B3061
:10060000CC2300000A308C00BD210A308C00D2239C
:100610001A308C00F20A10307202031D3028F201E9
:10062000F30A30281600A0041600A1041600A20444
:100630001600A3041600A4041600A5040800D700A1
:1006400087011223000000320A308C00BD210A30DD
:100650008C00D2231A308C00F20A30307202031D53
:100660003028F201F30A30282100EC22A73086005E
:10067000F830720586073B001B12091A1B16210071
:10068000893689360B000830DA330830D833083021
:10069000D6330830D4330A30D2330A30D033210075
:1006A000701B0D32EC220A30CC2300320A308C0051
:1006B000BD210A308C00D2231A308C001832083049
:1006C000D70028301900503019007208A121031CEE
:1006D0000D32F01F063284308700F93086007F2308
:1006E000053284308700EA3086007F23BD21F20A7C
:1006F00078307202031D3028F201F30A30282830C6
:100700007202893689368936F4008935740786077E
:100710000318870A1600A1001600A2001600A30005
:10072000080021008701A030860058088607590874
:100730001E005A08C03F0A30D7001430CC230032C4
:100740000A308C00BD210A308C00D2231A308C0074
:10075000F20A08307202031D3028F201F30A302831
:100760007018B32B3028F018BA2B05307102031D16
:100770003028C42B06307102031D30283B000330A3
:10078000B6008D30B500BF17F301F201F101701012
:1007900070150230F0063028890BFE330800000087
:1007A000000000000800FD07831805320F307D05AA
:1007B000093C031802320630FD077D0E0F39093C53
:1007C000031809326030FD07FC0A02307C02031C6A
:1007D00008000130FB0004307C02031D08000830D3
:1007E0007D02031D08007017F01708000030870015
:1007F000A73086003030F400FF301E00F40BFD33CC
:10080000080019008935893580071200080020008A
:100810003108F40089358935F500F406F535750899
:10082000F406F5357535F406F435B00DB10D300824
:10083000080007240730300589350B0000300D32E1
:1008400001300B32FF3009320030073201300532FF
:10085000FF300332FF3001320130F9000800FC01A3
:10086000FD01F62321000330DF00FE01FE0AEB301C
:10087000F8001924FC30FA000230FB00F001701679
:0E0880000800890995000B110B1DFE330800BE
:02088E00003434
:02089000003432
:0E08920085017030840003011A00841FFD33BD
:1008A00084012030850003011A00051CFD3320005F
:1008B000B009B109B209B3090030850030308400B5
:1008C0005030950023008C010C14210020309E0034
:1008D00024008C0121000C110C1022000C163B008E
:1008E0009F019101920197019801960107309500AF
:1008F0000430930094019F17C0309B003B00A1017E
:10090000A201A701A8013030AE000D30A600FA30D8
:10091000A5002636A400250CA300AF173B00BF019D
:10092000B101B201B701B8011B30B5000730B60004
:100930008630B300B401D030BB00BF173C14200098
:100940001313210013170B178B172F24F0017015A9
:100950007016A92C19008935893580071200000707
:100960000B004034A034A034A03440344034C034B0
:1009700040344034E034E0342034C0348034E03457
:10098000E0342034C0342034E034A034A034E034E7
:1009900020342034E0348034E0342034E034C03477
:1009A0008034E034A034E034E03420342034203487
:1009B0002034E034A034E034A034E034E034A03417
:1009C000E0342034603401000B008B34D3340D3418
:1009D000FB340100E800C80000008E00A800000001
:1009E000EA00A80000008A00A0000000EA00C80099
:1009F0000000EE00E80000008A00A80000008A0065
:100A0000A80000008A00A8000000EE00EE00000030
:020000040001F9
:02000E00A73F0A
:02001000FF1ED1
:00000001FF
