:020000040000FA
:080000004C2C0100010001007D
:08000800F10A031970147019CC
:100010001C282100A001A101A201A301A401A501A6
:100020000530D1233B001B1221008C100430D1235A
:1000300000008C1424000C1673080B0038284E287E
:1000400061286E287B289B28CA28FA286E29B329A4
:10005000B22AD32AFF2A352B532B972BB52B01001D
:100060002100F0190C1024000C123B003D10090077
:10007000720803194328F20A06307202031D302861
:10008000F201F30A30283B004130B300B4010330E1
:10009000B6008D30B500BF17F20A30287208031978
:1000A0005928F20A06307202031D3028F201F30AC1
:1000B00030283B000830B3000330B400BF17F20A09
:1000C00030287208031943280630720203196A287F
:1000D000F20A3028F30AF201F01C302870113B00BC
:1000E0008630B300B4010730B6001B30B500BF172F
:1000F000F30AF1363028F30AF019302821000C14E5
:10010000210003309D009D18FE331C08190010309B
:100110009D00F01C03321200FF0030281200FF0780
:10012000FF0C7F36F6002830760228300318F600E0
:10013000EA2021003028F30AF01D3028F01AAA2006
:100140002100DE0B3028F0113B002B13AB132100F4
:100150000C143028F01C08003B00A636A50CA43671
:10016000A30CAF1708001900F0153B000008E624A7
:10017000A600000AE624A5002636A400250CA3004C
:10018000AF172B17AB172100013FDE000231210012
:100190000C100800F30A20000C080839F400701B4A
:1001A0000D32701A0432031D0D3232243028F01E35
:1001B0003028031D0732F0121C243028031D0232A0
:1001C000322430287608023EF7005D21F30AF30A54
:1001D0000A243028763689368936D800FF30D9008F
:1001E000DA010730760503190800D936DA0C890BD5
:1001F000FC330800FE0B39327B08FE007908F70754
:10020000F91F0632F71F0B32F701F909F90A073215
:1002100077082E3C03180332F703F909F90A7A0824
:10022000F807FA1F09323A30780203181E323A30C2
:10023000F800FA09FA0A19327808ED3C0318153269
:10024000382103181232F0162100DF0B023270122F
:10025000701702307607F700EF30F800FC30FA0034
:10026000083019000230B320F30A5D21F30A302868
:100270007608190003198003083E19007708A521A4
:100280000318023203100800EE30F800FA09FA0AE7
:1002900076087702031C0932031907320630760705
:1002A000770201300318F9000232FF30F900023002
:1002B0001900B320F30A03140800210077368936A9
:1002C0008936DB00C030DC00DD010730770503191B
:1002D0000800DC36DD0C890BFC3308004A301900BD
:1002E0007A3019007808A521031C2D3221008701DE
:1002F000A73086004A307802F839190086075B0873
:100300008607F0307719890E010503191C320F306A
:100310007719890E8105FA09FA0A7A08F807120096
:10032000893689360B000930093209300732073027
:10033000053205300332033001320130D62301305B
:1003400019000030B320F30A3028F500013F750290
:10035000031C07320008F5020308013A830002314A
:1003600008000032FC331D307102031D3028F201F9
:10037000F30A302878081900083E19007108A521F1
:100380000800A0351B30031857088C00A0351B301F
:10039000031857088C00A0351B30031857088C0031
:1003A000A0351B30031857088C00A0351B300318EC
:1003B00057088C00A0351B30031857088C00A03557
:1003C0001B30031857088C00A0351B300318570842
:1003D0008C00A1351B30031857088C00A1351B3049
:1003E000031857088C00A1351B30031857088C00E0
:1003F000A1351B30031857088C00A1351B3003189A
:1004000057088C00A1351B30031857088C00A13504
:100410001B30031857088C00A1351B3003185708F0
:100420008C00A2351B30031857088C00A2351B30F6
:10043000031857088C00A2351B30031857088C008E
:10044000A2351B30031857088C00A2351B30031847
:1004500057088C00A2351B30031857088C00A235B2
:100460001B30031857088C00A2351B30031857089F
:100470008C00A3351B30031857088C00A3351B30A4
:10048000031857088C00A3351B30031857088C003D
:10049000A3351B30031857088C00A3351B300318F5
:1004A00057088C00A3351B30031857088C00A33560
:1004B0001B30031857088C00A3351B30031857084E
:1004C0008C00A4351B30031857088C00A4351B3052
:1004D000031857088C00A4351B30031857088C00EC
:1004E000A4351B30031857088C00A4351B300318A3
:1004F00057088C00A4351B30031857088C00A4350E
:100500001B30031857088C00A4351B3003185708FC
:100510008C00A5351B30031857088C00A5351B30FF
:10052000031857088C00A5351B30031857088C009A
:10053000A5351B30031857088C00A5351B30031850
:1005400057088C00A5351B30031857088C00A535BB
:100550001B30031857088C00A5351B3003185708AB
:100560008C000800210072088936893619000F3086
:100570007C05AC24A0047D0E0F39AC24890EA004A8
:100580000F307D05AC24A1045F08AC24A504023023
:10059000D123C1210131F20A14307202031D302827
:1005A000F201F30A30282100A009A109A209A30938
:1005B000A409A5090B30D7001630D1230B308C00CD
:1005C000C1210B308C00D5231B308C00F20A08307F
:1005D0007202031D3028F201F30A3028BA21031CED
:1005E0000A328701A03086005B0886075C081E007F
:1005F0005D08C03F08000130D12300000800210041
:10060000EE220B30D12300320B308C00C1210B3095
:100610008C00D5231B308C00F20A10307202031DAF
:100620003028F201F30A30281600A0041600A104B5
:100630001600A2041600A3041600A4041600A504C4
:100640000800D7008701142300000B308C00C12163
:100650000B308C00D5231B308C00F20A3030720234
:10066000031D3028F201F30A30282100EE22A730C2
:100670008600F830720586073B0019001030000232
:1006800003181B1612002100893689360B00093029
:10069000D8330930D6330930D4330930D233193046
:1006A000D0331930CE332100701B0F32EE220B30C5
:1006B000D7000A30D12300000B308C00C1210B3051
:1006C0008C00D5231B308C0018320930D70028301D
:1006D0001900503019007208A521031C0D32F01FBB
:1006E000063284308700FB30860085230532843053
:1006F0008700EC3086008523C121F20A7C3072022B
:10070000031D3028F201F30A30282830720289369E
:1007100089368936F4008935740786070318870AF5
:100720001600A1001600A2001600A3000800210078
:100730008701A03086005808860759081E005A080D
:10074000C03F0B30D7001530D1230B308C00C121B6
:100750000B308C00D5231B308C00F20A043072025F
:10076000031D3028F201F30A30287018B82B302806
:10077000F018BF2B05307102031D3028C92B06303D
:100780007102031D30283B000330B6008D30B500E8
:10079000BF17F301F201F101701070150230F0067D
:1007A0003028890BFE33080000000800FD0783187D
:1007B00005320F307D05093C031802320630FD0773
:1007C0007D0E0F39093C031809326030FD07FC0A21
:1007D00002307C02031C08000130FB0004307C0264
:1007E000031D080008307D02031D08007017F01774
:1007F000080000308700A73086003030F400FF305A
:100800001E00F40BFD330800190089358935800777
:100810001200080020003108F40089358935F50000
:10082000F406F5357508F406F5357535F406F43536
:10083000B00DB10D300808000A24073030058935A5
:100840000B0000300D3201300B32FF300932003026
:10085000073201300532FF300332FF300132013000
:10086000F9000800FC01FD01F92321000330DF003D
:10087000FE01FE0AEF30F8001C24FC30FA000230C2
:10088000FB00F00170160800890995000B110B1D83
:04089000FE3308002B
:0408940000340034F8
:080898008501703084000301AA
:1008A0001A00841FFD3384012030850003011A00E3
:1008B000051CFD332000B009B109B209B3090030AD
:1008C0008500303084005030950023008C010C14DA
:1008D000210020309E0024008C0121000C112200F8
:1008E0000C163B009F01910192019701980196011E
:1008F000073095000430930094019F17C0309B008F
:100900003B00A101A201A701A8013030AE000D30CB
:10091000A600FA30A5002636A400250CA300AF17C8
:100920003B00BF01B101B201B701B8011B30B500F6
:100930000730B6008630B300B401D030BB00BF171B
:100940003C1420001313210013170B178B173224AC
:10095000F00170157016AB2C1900893589358007A8
:10096000120000070B004034A034A034A0344034FF
:100970004034C03440344034E034E0342034C034B7
:100980008034E034E0342034C0342034E034A03407
:10099000A034E03420342034E0348034E034203497
:1009A000E034C0348034E034A034E034E034203427
:1009B000203420342034E034A034E034A034E03457
:1009C000E034A034E0342034603401000B008B3478
:1009D000D3340D34FB340100E800C80000008E0061
:1009E000A8000000EA00A80000008A00A0000000A3
:1009F000EA00C8000000EE00E80000008A00A8003D
:100A000000008A00A80000008A00A8000000EE0094
:040A1000EE000000F4
:020000040001F9
:02000E00A73F0A
:02001000FF1ED1
:00000001FF
