:020000040000FA
:08000000DB2A010001000100F0
:08000800F01A12280A30890BDE
:10001000072821008C100530890B0C2800008C1457
:1000200024000C168A01730882072E2846285B28B4
:100030006828762891289D28A028A828F1280B292F
:100040007229A029CE29FC292A2A582A6C2A862A14
:10005000010024000C123B003D1009007208031936
:100060003B28F20A06307202031D2928F201F30A26
:100070000630F10729283B004130B300B4010330BA
:10008000B6008D30B500BF17F20A2928720803198F
:100090005328F20A06307202031D2928F201F30ADE
:1000A0000630F10729283B000830B3000330B400C4
:1000B000BF17F20A2928720803193B28063072027A
:1000C00003196428F20A2928F30AF201F01C2928EE
:1000D000F0123B008630B300B4010730B6001B308D
:1000E000B500BF17F30A0930F1002928F30AF10A15
:1000F00070197E2822008C1D7015292821000C14EF
:10010000210003309D009D1883281D101C08F60057
:100110005D307602031C02325D30F60021000C10C7
:100120002928F30AF10A701E29282100A40B292886
:1001300070123B002B13AB132928F30AF10A29286C
:10014000F10A1A307102031D2928F201F30A292845
:10015000210072088936893619000F307D05C222C8
:1001600000073623A2007D0E0F39C2220007362376
:10017000A1000F307C05C22200073623DE202108B3
:10018000DE202208DE201430890BC4280C12013036
:10019000890BC828CB280C160A30890BCD282308D8
:1001A000C22200073623DE20F20A14307202031D39
:1001B0002928F201F30A1430F1072928890D0318C0
:1001C0000C12031C0C16890D03180C12031C0C16C0
:1001D000890D03180C12031C0C16003200320C1689
:1001E0000800F01C0E320730890BF42800002100B3
:1001F0008C140C126930890BFB28FE2821008C140A
:100200000C16F20A08307202031D2928F201F30AC3
:100210000830F1072928F01C5B3278087102031CB2
:100220000632083078077102031C20320332023094
:10023000890B18290330890B1B291E2921008C14D6
:100240000C120130890B222900000C1621008C149D
:100250000C166530890B2A29000021008C140C1221
:100260000130890B312900000C1628320430890B2B
:100270003729000021000C127708031D07320230D5
:10028000890B402943290C1600000A320C16770806
:10029000890BFE330C120230890B4C294F290C16A6
:1002A0007708613C03190C12013E890BFE330000F4
:1002B0000C120130890B5A2900000C16F20AF10ABF
:1002C000B6307202031D29281230F201F3002928EA
:1002D000F20A10307202031D2928F201F30A1030CD
:1002E000F10729283B001B1220003008F4000630DB
:1002F000890B78297B2908301900F435031C043256
:1003000021000C128C100532000021008C140C16F8
:1003100000320930890B8A290000800BEE3301314D
:1003200021008C140C160130890B9429F20A083034
:100330007202031D2928F201F30A0830F107292867
:100340003B001B1620003108F4000630890BA6295B
:10035000A92908301900F435031C043221000C12BD
:100360008C100532000021008C140C16003209306C
:10037000890BB8290000800BEE33013121008C1469
:100380000C160130890BC229F20A08307202031DD3
:100390002928F201F30A0830F10729283B001B1233
:1003A00020003208F4000630890BD429D729083000
:1003B0001900F435031C043221000C168C10053290
:1003C000000021008C140C1600320930890BE6293C
:1003D0000000800BEE33013121008C140C1601302B
:1003E000890BF029F20A08307202031D2928F20154
:1003F000F30A0830F10729283B001B1620003308B8
:10040000F4000630890B022A052A08301900F43559
:10041000031C043221000C168C1005320000210050
:100420008C140C1600320930890B142A0000800B42
:10043000EE33013121008C140C160130890B1E2A79
:10044000F20A08307202031D2928F201F30A08306B
:10045000F107292820003408F4000730890B2E2AE0
:1004600008301900F435031C043221008C140C12DE
:100470000532000021008C140C1600320930890B63
:100480003F2A0000800BEE33013121008C140C1642
:100490000130890B492A21008C140C16F20A08300D
:1004A0007202031D2928F201F30A0830F1072928F6
:1004B0000830890B592A6A30890B5C2A5F2A21008F
:1004C0008C140C16F20A76307202031D2928F201F0
:1004D000F30A7630F10729280830890B6D2A702A33
:1004E000760803190232890BFE3321000C120A3000
:1004F000890B782A7B2A0C16F20A08307202031D37
:100500002928F201F30A0830F1072928F10A031912
:10051000701470188C2A2928F018932A053071025B
:10052000031D29289D2A06307102031D29283B003E
:100530000330B6008D30B500BF17F301F201F101B1
:100540007010F0160230F0062928803D0A300002B3
:10055000031C0800063080070F30800503140800D4
:10056000190003100F307D05A522030119007D0E2F
:100570000F39A5220318FC0A1200890E0004FD00A1
:1005800001310800190089358935800712000800FB
:1005900000308700303086000530F400FF301E0048
:1005A000F40BFD330800890995000B110B1DFE3378
:0205B000080041
:0405B20000340034DD
:0A05B60085017030840003011A0073
:1005C000841FFD3384012030850003011A00051CBF
:1005D000FD33C82200308500303084005030950053
:1005E00023008C010C14210020309E0024008C017B
:1005F0008C1521000C1122000C163B009F0191016B
:1006000092019701980196010730950004309300FC
:1006100094019F17C0309B003B00BF01B101B201A4
:10062000B701B8011B30B5000730B6008630B30003
:10063000B401D030BB00BF173C14200013132100BD
:1006400013170B178B17F014F01621000330A300BB
:100650006130F700C830F8003C302100A40070166B
:10066000701AFE330130B022F733352B0B004034C3
:10067000A034A034A03440344034C034403440343A
:10068000E034E0342034C0348034E034E0342034CA
:10069000C0342034E034A034A034E034203420349A
:1006A000E0348034E0342034E034C0348034E0344A
:1006B000A034E034E0342034203420342034E034DA
:1006C000A034E034A034E034E034A034E03420340A
:0206D000603494
:020000040001F9
:02000E00A73F0A
:02001000FF3EB1
:00000001FF
