:020000040000FA
:080000001B2C890BFE330800E4
:08000800F10A031970147019CC
:100010001A282100A001A101A201A301A401A501A8
:10002000053001203B001B1221008C100430012000
:1000300000008C1473080B0034284A285D286A28B5
:1000400077288D28BC28EC286029A529A42AC12A54
:10005000ED2A232B412B812B9F2B01002100F0192E
:100060000C103B003D100900720803193F28F20AEA
:1000700006307202031D2E28F201F30A2E283B00DF
:100080004130B300B4010330B6008D30B500BF1766
:10009000F20A2E28720803195528F20A0630720255
:1000A000031D2E28F201F30A2E283B000830B3006E
:1000B0000330B400BF17F20A2E28720803193F2834
:1000C0000630720203196628F20A2E28F30AF2019A
:1000D000F01C2E2870113B008630B300B4010730AD
:1000E000B6001B30B500BF17F30AF1362E28F30A0D
:1000F000F0192E2821000C14210003309D009D18BA
:10010000FE331C36F6002830760228300318F6003D
:1001100010309D00DC2021002E28F30AF01D2E282F
:10012000F01A9C202100DE0B2E28F0113B002B132F
:10013000AB1321000C142E28F01C08003B00A6363F
:10014000A50CA436A30CAF1708001900F0153B004E
:1001500000088424A600000A8424A5002636A400F2
:10016000250CA300AF172B17AB172100013FDE00B2
:10017000023121000C100800F30A20000C08083995
:10018000F400701B0D32701A0432031D0D32072467
:100190002E28F01E2E28031D0732F012F1232E28E0
:1001A000031D023207242E287608023EF7004F2155
:1001B000F30AF30AE9232E28763689368936D800E1
:1001C000FF30D900DA010730760503190800D93667
:1001D000DA0C890BFC330800FE0B39327B08FE0079
:1001E0007908F707F91F0632F71F0B32F701F909F3
:1001F000F90A073277082E3C03180332F703F9098E
:10020000F90A7A08F807FA1F09323A307802031817
:100210001E323A30F800FA09FA0A19327808ED3C31
:10022000031815322A2103181232F0162100DF0BB1
:1002300002327012701702307607F700EF30F800C4
:10024000FC30FA00083019000230A520F30A4F21D3
:10025000F30A2E287608190003198003083E1900B6
:10026000770897210318023203100800EE30F800D7
:10027000FA09FA0A76087702031C093203190732D1
:1002800006307607770201300318F9000232FF309A
:10029000F90002301900A520F30A03140800210018
:1002A000773689368936DB00C030DC00DD01073067
:1002B000770503190800DC36DD0C890BFC330800D8
:1002C0004A3019007A30190078089721031C2D3222
:1002D00021008701A73086004A307802F8391900DA
:1002E00086075B088607F0307719890E0105031928
:1002F0001C320F307719890E8105FA09FA0A7A083B
:10030000F8071200893689360B00093009320930A6
:100310000732073005320530033203300132013035
:10032000BB23013019000030A520F30A2E28F50068
:10033000013F7502031C07320008F5020308013A69
:100340008300023108000032FC331D307102031DAE
:100350002E28F201F30A2E2878081900083E190009
:10036000710897210800A0351B30031857088C002E
:10037000A0351B30031857088C00A0351B3003181C
:1003800057088C00A0351B30031857088C00A03587
:100390001B30031857088C00A0351B300318570872
:1003A0008C00A0351B30031857088C00A0351B307B
:1003B000031857088C00A1351B30031857088C0010
:1003C000A1351B30031857088C00A1351B300318CA
:1003D00057088C00A1351B30031857088C00A13535
:1003E0001B30031857088C00A1351B300318570821
:1003F0008C00A1351B30031857088C00A1351B3029
:10040000031857088C00A2351B30031857088C00BE
:10041000A2351B30031857088C00A2351B30031877
:1004200057088C00A2351B30031857088C00A235E2
:100430001B30031857088C00A2351B3003185708CF
:100440008C00A2351B30031857088C00A2351B30D6
:10045000031857088C00A3351B30031857088C006D
:10046000A3351B30031857088C00A3351B30031825
:1004700057088C00A3351B30031857088C00A33590
:100480001B30031857088C00A3351B30031857087E
:100490008C00A3351B30031857088C00A3351B3084
:1004A000031857088C00A4351B30031857088C001C
:1004B000A4351B30031857088C00A4351B300318D3
:1004C00057088C00A4351B30031857088C00A4353E
:1004D0001B30031857088C00A4351B30031857082D
:1004E0008C00A4351B30031857088C00A4351B3032
:1004F000031857088C00A5351B30031857088C00CB
:10050000A5351B30031857088C00A5351B30031880
:1005100057088C00A5351B30031857088C00A535EB
:100520001B30031857088C00A5351B3003185708DB
:100530008C00A5351B30031857088C00A5351B30DF
:10054000031857088C000800210072088936893684
:1005500019007C085D24890EA0047D0E5D24A00492
:100560007D085D24890EA1045F085D24A404B321E5
:100570000131F20A14307202031D2E28F201F30A2F
:100580002E282100A009A109A209A309A409A509EF
:100590000B30D700163001200B308C00B3210B300C
:1005A0008C0003201B308C00F20A08307202031DFD
:1005B0002E28F201F30A2E28AC21031C0A328701EF
:1005C000A03086005B0886075C081E005D08C03FFF
:1005D000080001300120000008002100DC220B305F
:1005E000012000320B308C00B3210B308C00032033
:1005F0001B308C00F20A10307202031D2E28F2010B
:10060000F30A2E281600A0041600A1041600A20466
:100610001600A3041600A4041600A5040800D700C1
:100620008701022300000B308C00B3210B308C00BB
:1006300003201B308C00F20A30307202031D2E287A
:10064000F201F30A2E282100DC22A7308600F830C0
:10065000720586073B0019001030000203181B16B4
:1006600012002100893689360B000930D833093051
:10067000D6330930D4330930D2331930D03319305E
:10068000CE332100701B0F32DC220B30D7000A3032
:10069000012000000B308C00B3210B308C000320B4
:1006A0001B308C0018320930D70028301900503028
:1006B000190072089721031C0D32F01F0632843096
:1006C0008700933086007323053284308700893099
:1006D00086007323B321F20A7C307202031D2E2898
:1006E000F201F30A2E2828307202893689368936BB
:1006F000893586070318870A1600A1001600A20094
:10070000080021008701A030860058088607590894
:100710001E005A08C03F0B30D700153001200B30A7
:100720008C00B3210B308C0003201B308C00F20AAC
:1007300004307202031D2E28F201F30A2E287018CD
:10074000A22B2E28F018A92B05307102031D2E288C
:10075000B32B06307102031D2E283B000330B60078
:100760008D30B500BF17F301F201F1017010701563
:100770000230F0062E28FD07831805320F307D0564
:10078000093C031802320630FD077D0E0F39093C83
:10079000031809326030FD07FC0A02307C02031C9A
:1007A00008000130FB0004307C02031D0800083003
:1007B0007D02031D08007017F01708000030870045
:1007C000A73086003030F400FF301E00F40BFD33FC
:1007D00008002000A836A90CB4300318A806280881
:1007E0000800E9230730280589350B0000300D3259
:1007F00001300B32FF300932003007320130053250
:10080000FF300332FF3001320130F9000800FC01F3
:10081000FD01DE2321000330DF00FE01FE0AEF3080
:10082000F800F123FC30FA000230FB00F0017016F2
:020830000800BE
:04083200003400345A
:0A08360085017030840003011A00F0
:10084000841FFD332000AC30A800E130A900003047
:1008500085002830840023008C010C1421002030F6
:100860009E0021000C1122000C160D3087008E30E6
:1008700086008101860AC1300602031DFA333B005F
:10088000C0309B0007309500043093009F173B0059
:100890003030AE003B001B30B5000730B60086306C
:1008A000B300D030BB00BF173C142000131321004D
:1008B00013170B178B1707245C2CF4000E39F50067
:1008C000F535F535F507753600076A24741C890E71
:1008D0000F3908000B004434AC34A434A4344E3433
:1008E000EE342234CC348234EE34AE34A834EE34D8
:1008F00022342E34CE348234E234A234E234EE3464
:10090000AA34EE34A234E6340B008B34D3340D34E5
:10091000FB34F4005C0086005200E50052008400C5
:10092000D200F4005C00EE00E8008A00A8008A0013
:0A093000A8008A00A800EE00EF0006
:020000040001F9
:02000E00A73F0A
:02001000FF1ED1
:00000001FF
