:020000040000FA
:08000000DB28010001000100F2
:080008008A01730882070D282C
:10001000232836284C2859280128F20A720882071A
:1000200000001928D428D428D428D428F201F30AAF
:10003000D4283B002030B300B4010130B600C630F4
:10004000B500BF17D428F20A7208820700002F28D3
:10005000D428D428D428D428F201F30AD4283B0089
:100060008330B3000130B400BF17D428F20A7208FD
:10007000820700001928D428D428D428D428F018BE
:1000800049283B0003300330B6008D30B500BF1760
:10009000F30AF201F30AD4283B004230B300B40162
:1000A0000330B6008D30B500BF17F30A0930F100F8
:1000B000D4280230890B5A283B001B170130890BCA
:1000C0005F2862281B13F10A031970147018BE28E8
:1000D00014307102031CD428FB3071020318D42899
:1000E00014307102031D7B2822000C163830890B56
:1000F00077280C12D428FA307102031D86282200BA
:100100000C163630890B82280C12D42822000C12CF
:100110003B001B161B178C280130890B8D28000013
:1001200022000C163B001B121B1700000130890B2C
:100130009728000022000C163B001B161B1700001E
:100140000130890BA128000022000C123B001B1279
:100150001B17AA280130890BAB28000022000C16BF
:100160003B001B13B328B4280130890BB5280000CD
:1001700022000C123B001B13BD28D428F018C52800
:1001800005307102031DD428CF2806307102031DEB
:10019000D4283B000130B600C630B500BF17F301CC
:1001A000F10170100230F0063B003D1020001313E7
:0201B000090044
:0401B20000340034E1
:0A01B6007030840085018001840A86
:1001C000841FDE2823008C0121008C100C110C12DE
:1001D00022000C120C153B009F0191019201970126
:1001E00098019601033095000230930094019F1707
:1001F00080309B003B00BF01B101B201B701B801E3
:100200008D30B5000330B6004230B300B401D030B9
:10021000BB00BF173C1420001313210013170B174A
:060220008B17F0141229F7
:020000040001F9
:02000E00A73F0A
:02001000FF3EB1
:00000001FF
