:020000040000FA
:08000000F82B010001000100D2
:08000800701912280A30890B5F
:10001000072821008C100530890B0C2800008C1457
:1000200024000C1673080B002E2846285B2868282D
:100030007628A628CB28692975297D29C629DE2995
:100040006C2A962AC02AEA2A142B3E2B502B692BA5
:10005000010024000C123B003D1009007208031936
:100060003B28F20A06307202031D2928F201F30A26
:100070000630F10729283B004130B300B4010330BA
:10008000B6008D30B500BF17F20A2928720803198F
:100090005328F20A06307202031D2928F201F30ADE
:1000A0000630F10729283B000830B3000330B400C4
:1000B000BF17F20A2928720803193B28063072027A
:1000C00003196428F20A2928F30AF201F01C2928EE
:1000D00070113B008630B300B4010730B6001B300E
:1000E000B500BF17F30A0930F1002928F30AF10A15
:1000F0009320701A05328F20031D0A32DE2329282F
:10010000F01E29288F20031D0332F012C82329284E
:100110007608043EF700F30AF30AB62329282000E4
:100120000C080839080021000C14210003309D0040
:100130009D1898281D101C08F6004A307602031CF2
:1001400002324A30F60021000C100800FE0B20326B
:100150007B08FE007908F707031D0432F70AF90946
:10016000F90A07327708523C03180332F703F909FA
:10017000F90A7A08F8073A30780203180332FA09C4
:10018000FA0A06327808FA3C03180232FA09FA0A27
:10019000F30AF10A292821007735770719008936F3
:1001A000890E0F39073CF400013019007408031957
:1001B00003328035890BFD33EC301900FB30190018
:1001C00078085D21031811327808F33C031C0132D2
:1001D0001932F016A80B0132701204307607F700BE
:1001E000EB30F800FC30FA00643276081900083071
:1001F0007607190077085D21031C5B32FC30FA009A
:10020000C8235732433019005230190078085D2155
:10021000031C09320008200503194B320009A00510
:100220000930932343324B3019005A3019007808B3
:100230005D21031C09320008210503193A32000927
:10024000A105063093233232533019006230190071
:1002500078085D21031C09320008220503192932A0
:100260000009A2050330932321325B3019006A3064
:10027000190078085D21031C0932000823050319C1
:1002800018320009A305023093231032633019009D
:100290007230190078085D21031C0B320008240518
:1002A000031907320009A40501309323FA09FA0A59
:1002B000C8230231F30AF10A2928F400013F74022D
:1002C000031C05320008F4020308013A83000231DE
:1002D0000800F30AF10AF01D29282100A90B29289A
:1002E000F0113B002B13AB132928F10A1E307102C9
:1002F000031D2928F201F30A2928210072088936F2
:10030000893619000F307D05A52300074624A70074
:100310007D0E0F39A52300074624A6000F307C056B
:10032000A52300074624B3212608B3212708B321BB
:100330001430890B99290C120130890B9D29A029B1
:100340000C160A30890BA2292808A5230007462489
:10035000B321F20A14307202031D2928F201F30AB4
:100360001430F1072928890D03180C12031C0C16F0
:10037000890D03180C12031C0C16890D03180C129E
:10038000031C0C16003200320C160800F01C0C3254
:1003900021001030890BCA29CD298C140C1257303A
:1003A000890BD0298C140C16F20A08307202031D36
:1003B0002928F201F30A0830F1072928F01C8232BB
:1003C00078087102031C0632083078077102031C9A
:1003D0001E3203320230890BEB290D30890BEE29D6
:1003E00021008C140C120130890BF42900000C162A
:1003F0008C140C165230890BFB29FE2921008C1419
:100400000C120130890B022A00000C165132210017
:10041000770803192432523C03193632013077022F
:100420000319013EF4000A30890B142A0C12013022
:10043000890B182A74080C16890BFE330C12023033
:10044000890B202A232A0C167708523C890BFE338D
:100450000C120130890B2A2A00000C1629320C30AC
:10046000890B302A00000C120430890B352A0C1637
:100470005030890B392A3C2A00000C120130890BBC
:100480003F2A00000C1614320B30890B452A00005D
:100490000C120130890B4A2A00000C165230890BCD
:1004A0004F2A522A00000C120430890B552A0C16D0
:1004B000F20AF10AFB307102031D2928F201133000
:1004C000F3002928F20A10307202031D2928F201D4
:1004D000F30A1030F10729283B001B1221002008E5
:1004E000F4001030890B722A000008301900F4352E
:1004F000031C04320C128C10000003328C140C16F6
:1005000000320730890B822A800BF13301318C14C1
:100510000C160130890B8A2AF20A08307202031D78
:100520002928F201F30A0830F10729283B001B169D
:1005300021002108F4001030890B9C2A00000830AB
:100540001900F435031C04320C128C100000033225
:100550008C140C1600320730890BAC2A800BF13357
:1005600001318C140C160130890BB42AF20A0830C0
:100570007202031D2928F201F30A0830F107292825
:100580003B001B1221002208F4001030890BC62A00
:10059000000008301900F435031C04320C168C10CE
:1005A000000003328C140C1600320730890BD62A57
:1005B000800BF13301318C140C160130890BDE2ACB
:1005C000F20A08307202031D2928F201F30A0830EA
:1005D000F10729283B001B1621002308F4001030E6
:1005E000890BF02A000008301900F435031C04328E
:1005F0000C168C10000003328C140C1600320730DD
:10060000890B002B800BF13301318C140C16013057
:10061000890B082BF20A08307202031D2928F20107
:10062000F30A0830F107292821002408F4001030CB
:10063000890B182B1B2B08301900F435031C0432CE
:100640008C140C12000003328C140C16003207308C
:10065000890B282B800BF13301318C140C160130DF
:10066000890B302B8C140C16F20A08307202031D11
:100670002928F201F30A0830F10729281130890BE3
:100680003F2B00006A30890B432B462B8C140C1631
:10069000F10AF3307102031D2928F201F30A292817
:1006A0001230890B512B760803190232890BFE3365
:1006B00021000C120A30890B5B2B5E2B0C16F20A00
:1006C00008307202031D2928F201F30A0830F107ED
:1006D0002928F10A0319701470186F2B2928F018B3
:1006E000762B05307102031D2928802B06307102FC
:1006F000031D29283B000330B6008D30B500BF171D
:10070000F301F201F101701070150230F006292892
:10071000803D0A300002031C0800063080070F30BD
:10072000800503140800190003100F307D0588238D
:10073000030119007D0E0F3988230318FC0A1200EB
:10074000890E0004FD000131080019008935893542
:1007500080071200080000308700A03086000530B6
:10076000F400FF301E00F40BFD330800330CB00C16
:10077000B10CB20CB30CB31BC52B5930B006F13021
:10078000B106FF30B2067F30B3061F3030050800D7
:10079000B6230730300589350B0000300D320130AB
:1007A0000B32FF3009320030073201300532FF30A2
:1007B0000332FF3001320130F9000800FC01FD0175
:1007C000AB2321000330A800FE01FE0AEB30F80045
:1007D000C823FC30FA000230FB007016F01208004B
:0C07E000890995000B110B1DFE33080069
:0407EC0000340034A1
:1007F00085017030840003011A00841FFD338401D9
:100800002030850003011A00051CFD332000B009CB
:10081000B109B209B309003085003030840050308E
:10082000950023008C010C14210020309E00240030
:100830008C0121000C1122000C163B009F0191013C
:1008400092019701980196010730950004309300BA
:1008500094019F17C0309B003B00BF01B101B20162
:10086000B701B8011B30B5000730B6008630B300C1
:10087000B401D030BB00BF173C142000131321007B
:1008800013170B178B17F0017015452C0B00403414
:10089000A034A034A03440344034C0344034403418
:1008A000E034E0342034C0348034E034E0342034A8
:1008B000C0342034E034A034A034E0342034203478
:1008C000E0348034E0342034E034C0348034E03428
:1008D000A034E034E0342034203420342034E034B8
:1008E000A034E034A034E034E034A034E0342034E8
:0208F000603472
:020000040001F9
:02000E00A73F0A
:02001000FF1ED1
:00000001FF
