:020000040000FA
:080000003D2A0100010001008E
:08000800F01A11280330890BE6
:10001000072800003B001B170130890B0D28102812
:100020001B138A01730882072B2843285828652848
:1000300073288628902893289B28B728D328FA2845
:10004000212948296F299629BD29E4291C2A010064
:100050003B003D100900720803193828F20A0630E7
:100060007202031D2828F201F30A0630F10728283E
:100070003B002030B300B4010130B600C630B500FB
:10008000BF17F20A2828720803195028F20A06300E
:100090007202031D2828F201F30A0630F10728280E
:1000A0003B008330B3000130B400BF17F20A2828A8
:1000B0007208031938280630720203196128F20AFF
:1000C0002828F30AF201F01C2828F0123B004230E5
:1000D000B300B4010330B6008D30B500BF17F30A8A
:1000E0000930F1002828F30AF10A70197B28220050
:1000F0008C1D7015282821000C14210003309D0050
:100100009D1880281D1021000C102828F30AF10AE0
:10011000701E2828F50B28283B002B13AB1328282A
:10012000F30AF10A2828F10A1A307102031D28285F
:10013000F201F30A28280330890B9C2800002200D2
:100140000C123B001B1300003630890BA528A82891
:1001500022000C123B001B130000F20A183072023E
:10016000031D2828F201F30A1830F107282803306C
:10017000890BB828000022000C163B001B1300005E
:100180003630890BC128C42822000C123B001B13F7
:100190000000F20A08307202031D2828F201F30A57
:1001A0000830F10728280330890BD42800002200EA
:1001B0000C163B001B130000DD2822000C123B0034
:1001C0001B1300003230890BE32822000C163B0081
:1001D0001B130000EB2822000C123B001B13000035
:1001E000F20A10307202031D2828F201F30A1030BF
:1001F000F10728280330890BFB28000022000C1689
:100200003B001B130000042922000C123B001B13AF
:1002100000003230890B0A2922000C163B001B1308
:100220000000122922000C123B001B130000F20AEE
:1002300008307202031D2828F201F30A0830F10782
:1002400028280330890B2229000022000C163B00CD
:100250001B1300002B2922000C123B001B13000073
:100260003230890B312922000C163B001B13000091
:10027000392922000C123B001B130000F20A08303F
:100280007202031D2828F201F30A0830F10728281A
:100290000330890B4929000022000C163B001B1378
:1002A0000000522922000C123B001B1300003230C8
:1002B000890B582922000C163B001B1300006029F3
:1002C00022000C123B001B130000F20A08307202DD
:1002D000031D2828F201F30A0830F107282803300B
:1002E000890B7029000022000C163B001B13000034
:1002F000792922000C123B001B1300003230890BBD
:100300007F2922000C163B001B13000087292200C6
:100310000C123B001B130000F20A08307202031D8E
:100320002828F201F30A0830F10728280330890B46
:100330009729000022000C163B001B130000A02987
:1003400022000C123B001B1300003230890BA6293F
:1003500022000C163B001B130000AE2922000C12D9
:100360003B001B130000F20A08307202031D28280C
:10037000F201F30A0830F10728280330890BBE295F
:10038000000022000C163B001B130000C7292200AE
:100390000C123B001B1300003230890BCD292200C8
:1003A0000C163B001B130000D52922000C123B0049
:1003B0001B130000F20A76307202031D2828F20196
:1003C000F30A7630F10728280330890BE52900006D
:1003D00022000C163B001B130000EE2922000C1219
:1003E0003B001B1300001430890BF42922000C166B
:1003F0003B001B121B170430890BFC2922000C1236
:100400003B001B1300001630890B042A072A220028
:100410000C163B001B1300000D2A22000C123B009F
:100420001B130000F20A08307202031D2828F20193
:10043000F30A0830F1072828F10A0319701470181C
:10044000222A2828F018292A05307102031D28289D
:10045000332A06307102031D28283B000130B60004
:10046000C630B500BF17F301F201F1017010F016AC
:060470000230F00628280E
:04047600003400341A
:06047A00703084008501D2
:100480008001840A841F402A23008C010C1421005F
:1004900020309E0021008C100C110C1222000C1236
:1004A0000C153B009F019101920197019801960163
:1004B000033095000230930094019F1780309B0019
:1004C0003B00BF01B101B201B701B8018D30B500E9
:1004D0000330B6004230B300B401D030BB00BF17C8
:1004E0003C1420001313210013170B178B17F01463
:1004F000F016792AF40082308A00740882070034EA
:10050000043408340C341034143418341C342034BB
:10051000243428342C343034343438343C344034AB
:02052000443461
:020000040001F9
:02000E00A73F0A
:02001000FF3EB1
:00000001FF
