:020000040000FA
:080000003D2C0100010001008C
:08000800701912280A30890B5F
:10001000072821008C100530890B0C2800008C1457
:1000200024000C1673080B002E2846285B2868282D
:1000300076289628E1280629B229BA29032A1B2AFC
:10004000A82AD22AFC2A262B502B7A2B8C2BA52BC4
:10005000010024000C123B003D1009007208031936
:100060003B28F20A06307202031D2928F201F30A26
:100070000630F10729283B004130B300B4010330BA
:10008000B6008D30B500BF17F20A2928720803198F
:100090005328F20A06307202031D2928F201F30ADE
:1000A0000630F10729283B000830B3000330B400C4
:1000B000BF17F20A2928720803193B28063072027A
:1000C00003196428F20A2928F30AF201F01C2928EE
:1000D00070113B008630B300B4010730B6001B300E
:1000E000B500BF17F30A0930F1002928F30AF10A15
:1000F000F01D29282100A90B2928F0113B002B1302
:10010000AB132928F0153B000008D024A600000AF4
:10011000D024A5002636A400250CA300AF172B176A
:10012000AB172100013FA90002310800F30AF10AD0
:10013000C720701B1932701A0532C320031D1C32F0
:1001400023242928F01E2928F01D0832F01C06322D
:100150003B00A636A50CA436A30CAF17C320031D85
:100160000B32F0120D242928C320031D0532701311
:100170002324F30AF10A29287608043EF700F30A3B
:10018000F30AFB23292820000C08083908003B004B
:100190002B1321000C14210003309D009D18CE2844
:1001A00010309D001C08F01D02323B002B17F6009A
:1001B0004A307602031C02324A30F60021000C104D
:1001C0000800FE0B20327B08FE007908F707031DAC
:1001D0000432F70AF909F90A07327708523C031882
:1001E0000332F703F909F90A7A08F8073A30780276
:1001F00003180332FA09FA0A06327808FA3C03189F
:100200000232FA09FA0AF30AF10A2928210077359D
:10021000770719008936890E0F39073CF400013041
:1002200019007408031903328035890BFD33EC3053
:100230001900FB3019007808A62103181632780837
:10024000F33C031C01322232F016A80B013270126B
:1002500004307607F700EB30F800FC30FA003C3051
:1002600019000230190082206D32760819000A3018
:10027000760719007708A621031C6432FC30FA00C7
:100280000D2402301900190082205C32433019001D
:10029000523019007808A621031C093200082005F5
:1002A000031950320009A0050930CF2343324B30E7
:1002B00019005A3019007808A621031C09320008D9
:1002C000210503193F320009A1050630CF23323240
:1002D00053301900623019007808A621031C093236
:1002E0000008220503192E320009A2050330CF238E
:1002F00021325B3019006A3019007808A621031CEE
:1003000009320008230503191D320009A305023034
:10031000CF23103263301900723019007808A621FB
:10032000031C10320008240503190C320009A4052F
:100330000130CF23FA09FA0A0D24013019000030E8
:10034000190082200231F30AF10A2928F400013F42
:100350007402031C05320008F4020308013A83000A
:1003600002310800F10A1E307102031D2928F20132
:10037000F30A2928210072088936893619000F30BE
:100380007D05EA2300079C24A7007D0E0F39EA2390
:1003900000079C24A6000F307C05EA2300079C245C
:1003A000F0212608F0212708F0211430890BD629E6
:1003B0000C120130890BDA29DD290C160A30890B61
:1003C000DF292808EA2300079C24F021F20A1430D0
:1003D0007202031D2928F201F30A1430F1072928BB
:1003E000890D03180C12031C0C16890D03180C122E
:1003F000031C0C16890D03180C12031C0C1600327A
:1004000000320C160800F01C0C3221001030890B51
:10041000072A0A2A8C140C125730890B0D2A8C14C7
:100420000C16F20A08307202031D2928F201F30AA1
:100430000830F1072928F01C813278087102031C6A
:100440000632083078077102031C1E320332023074
:10045000890B282A0D30890B2B2A21008C140C12B1
:100460000130890B312A00000C168C140C16523006
:10047000890B382A3B2A21008C140C120130890B7D
:100480003F2A00000C16503221007708031924324D
:10049000523C03193632013077020319013EF40051
:1004A0000A30890B512A0C120130890B552A740825
:1004B0000C16890BFE330C120230890B5D2A602A60
:1004C0000C167708523C890BFE330C120130890B55
:1004D000672A00000C1628320C30890B6D2A0000A8
:1004E0000C120430890B722A0C165030890B762AB4
:1004F000792A00000C120130890B7C2A00000C16AE
:1005000013320B30890B822A00000C120130890B48
:10051000872A00000C165230890B8C2A0C120330EB
:10052000890B902A00000C16F20AF10AFB307102C6
:10053000031D2928F2011330F3002928F20A103094
:100540007202031D2928F201F30A1030F10729284D
:100550003B001B1221002008F4001030890BAE2A4A
:10056000000008301900F435031C04320C128C1002
:10057000000003328C140C1600320730890BBE2A9F
:10058000800BF13301318C140C160130890BC62A13
:10059000F20A08307202031D2928F201F30A08301A
:1005A000F10729283B001B1621002108F400103018
:1005B000890BD82A000008301900F435031C0432D6
:1005C0000C128C10000003328C140C160032073011
:1005D000890BE82A800BF13301318C140C160130A1
:1005E000890BF02AF20A08307202031D2928F20151
:1005F000F30A0830F10729283B001B1221002208CA
:10060000F4001030890B022B000008301900F4357B
:10061000031C04320C168C10000003328C140C16D0
:1006200000320730890B122B800BF13301318C140F
:100630000C160130890B1A2BF20A08307202031DC6
:100640002928F201F30A0830F10729283B001B167C
:1006500021002308F4001030890B2C2B00000830F7
:100660001900F435031C04320C168C100000033200
:100670008C140C1600320730890B3C2B800BF133A5
:1006800001318C140C160130890B442BF20A08300E
:100690007202031D2928F201F30A0830F107292804
:1006A00021002408F4001030890B542B572B0830FC
:1006B0001900F435031C04328C140C1200000332B0
:1006C0008C140C1600320730890B642B800BF1332D
:1006D00001318C140C160130890B6C2B8C140C1608
:1006E000F20A08307202031D2928F201F30A0830C9
:1006F000F10729281130890B7B2B00006A30890B08
:100700007F2B822B8C140C16F10AF3307102031D1F
:100710002928F201F30A29281230890B8D2B76083B
:1007200003190232890BFE3321000C120A30890BA7
:10073000972B9A2B0C16F20A08307202031D2928F7
:10074000F201F30A0830F1072928F10A031970149D
:100750007018AB2B2928F018B22B05307102031D3D
:100760002928BC2B06307102031D29283B000330C9
:10077000B6008D30B500BF17F301F201F101701022
:1007800070150230F0062928803D0A300002031C53
:100790000800063080070F30800503140800190098
:1007A00003100F307D05C423030119007D0E0F399E
:1007B000C4230318FC0A1200890E0004FD00013155
:1007C0007C1C08000130FB0068307D02031D08001E
:1007D0007017080019008935893580071200080054
:1007E00000308700A03086000530F400FF301E0086
:1007F000F40BFD330800330CB00CB10CB20CB30C8D
:10080000B31B0A2C5930B006F130B106FF30B206E6
:100810007F30B3061F3030050800FB23073030055A
:1008200089350B0000300D3201300B32FF300932B8
:100830000030073201300532FF300332FF30013221
:100840000130F9000800FC01FD01F0232100033014
:10085000A800FE01FE0AEB30F8000D24FC30FA007F
:100860000230FB007016F0120800890995000B1188
:060870000B1DFE33080021
:040876000034003416
:06087A00850170308400CE
:1008800003011A00841FFD33840120308500030119
:100890001A00051CFD332000B009B109B209B309E3
:1008A00000308500303084005030950023008C01EA
:1008B0000C14210020309E0024008C0121000C111A
:1008C0000C1022000C163B009F0191019201970130
:1008D00098019601073095000430930094019F170A
:1008E000C0309B003B00A101A201A701A80130304C
:1008F000AE000D30A600FA30A5002636A400250C67
:10090000A300AF173B00BF01B101B201B701B801AD
:100910001B30B5000730B6008630B300B401D030CC
:10092000BB00BF173C1420001313210013170B1733
:100930008B17F00170159B2C0B004034A034A034B1
:10094000A03440344034C03440344034E034E034E7
:100950002034C0348034E034E0342034C0342034D7
:10096000E034A034A034E03420342034E034803447
:10097000E0342034E034C0348034E034A034E03457
:10098000E0342034203420342034E034A034E03407
:10099000A034E034E034A034E0342034603401008A
:0C09A0000B008B34D3340D34FB34010009
:020000040001F9
:02000E00A73F0A
:02001000FF1ED1
:00000001FF
