:020000040000FA
:080000001B2B010001000100AF
:08000800F01A12280A30890BDE
:10001000072821008C100530890B0C2800008C1457
:1000200024000C168A01730882072E2846285B28B4
:100030006828762891289D28BF28C72810292A29B2
:10004000B229E0290E2A3C2A6A2A982AAC2AC62A12
:10005000010024000C123B003D1009007208031936
:100060003B28F20A06307202031D2928F201F30A26
:100070000630F10729283B004130B300B4010330BA
:10008000B6008D30B500BF17F20A2928720803198F
:100090005328F20A06307202031D2928F201F30ADE
:1000A0000630F10729283B000830B3000330B400C4
:1000B000BF17F20A2928720803193B28063072027A
:1000C00003196428F20A2928F30AF201F01C2928EE
:1000D000F0123B008630B300B4010730B6001B308D
:1000E000B500BF17F30A0930F1002928F30AF10A15
:1000F00070197E2822008C1D7015292821000C14EF
:10010000210003309D009D1883281D101C08F60057
:100110005D307602031C02325D30F60021000C10C7
:100120002928F30AF10A701E29282100A40B292886
:1001300070123B002B13AB132928FE0B1D327B08DA
:10014000FE007908F707031D0232F9090632770825
:10015000643C03180232F703F9097A08F8073630CD
:10016000780203180332FA09FA0A06327808E63CE4
:1001700003180232FA09FA0AF30AF10A2928F10AE5
:100180001B307102031D2928F201F30A29282100DE
:1001900072088936893619000F307D050223000761
:1001A0008023A2007D0E0F39022300078023A100C7
:1001B0000F307C05022300078023FD202108FD204D
:1001C0002208FD201430890BE3280C120130890B22
:1001D000E728EA280C160A30890BEC2823080223AA
:1001E00000078023FD20F20A14307202031D292823
:1001F000F201F30A1430F1072928890D03180C12B3
:10020000031C0C16890D03180C12031C0C16890D07
:1002100003180C12031C0C16003200320C160800D6
:10022000F01C0E320730890B1329000021008C14BA
:100230000C126930890B1A291D2921008C140C1607
:10024000F20A08307202031D2928F201F30A08306D
:10025000F1072928F01C7C3278087102031C063251
:10026000083078077102031C203203320230890BF8
:1002700037290330890B3A293D2921008C140C12AF
:100280000130890B412900000C1621008C140C163A
:100290006530890B4929000021008C140C120130B3
:1002A000890B502900000C164932210077080319E8
:1002B0002032643C031930320230890B5D29000082
:1002C0000C120130890B622977080C16890BFE335A
:1002D0000C120230890B6A296D290C167708643CD0
:1002E000890BFE330C120130890B742900000C16A7
:1002F00025320330890B7A290C120430890B7E29B0
:100300000C166430890B822900000C120130890B15
:10031000872900000C1612320230890B8D290C122D
:100320000130890B912900000C166430890B962945
:1003300000000C120430890B9B290C16F20AF10AFA
:10034000B6307202031D29281230F201F300292869
:10035000F20A10307202031D2928F201F30A10304C
:10036000F10729283B001B1220003008F40006305A
:10037000890BB829BB2908301900F435031C043255
:1003800021000C128C100532000021008C140C1678
:1003900000320930890BCA290000800BEE3301318D
:1003A00021008C140C160130890BD429F20A083074
:1003B0007202031D2928F201F30A0830F1072928E7
:1003C0003B001B1620003108F4000630890BE6299B
:1003D000E92908301900F435031C043221000C12FD
:1003E0008C100532000021008C140C1600320930EC
:1003F000890BF8290000800BEE33013121008C14A9
:100400000C160130890B022AF20A08307202031D11
:100410002928F201F30A0830F10729283B001B12B2
:1004200020003208F4000630890B142A172A0830FD
:100430001900F435031C043221000C168C1005320F
:10044000000021008C140C1600320930890B262A7A
:100450000000800BEE33013121008C140C160130AA
:10046000890B302AF20A08307202031D2928F20192
:10047000F30A0830F10729283B001B162000330837
:10048000F4000630890B422A452A08301900F43559
:10049000031C043221000C168C10053200002100D0
:1004A0008C140C1600320930890B542A0000800B82
:1004B000EE33013121008C140C160130890B5E2AB9
:1004C000F20A08307202031D2928F201F30A0830EB
:1004D000F107292820003408F4000730890B6E2A20
:1004E00008301900F435031C043221008C140C125E
:1004F0000532000021008C140C1600320930890BE3
:100500007F2A0000800BEE33013121008C140C1681
:100510000130890B892A21008C140C16F20A08304C
:100520007202031D2928F201F30A0830F107292875
:100530000830890B992A6A30890B9C2A9F2A21004E
:100540008C140C16F20A76307202031D2928F2016F
:10055000F30A7630F10729280830890BAD2AB02A32
:10056000760803190232890BFE3321000C120A307F
:10057000890BB82ABB2A0C16F20A08307202031D36
:100580002928F201F30A0830F1072928F10A031992
:1005900070147018CC2A2928F018D32A053071025B
:1005A000031D2928DD2A06307102031D29283B007E
:1005B0000330B6008D30B500BF17F301F201F10131
:1005C0007010F0160230F0062928803D0A30000233
:1005D000031C0800063080070F3080050314080054
:1005E000190003100F307D05E522030119007D0E6F
:1005F0000F39E5220318FC0A1200890E0004FD00E1
:10060000013108001900893589358007120008007A
:1006100000308700303086000530F400FF301E00C7
:10062000F40BFD330800890995000B110B1DFE33F7
:020630000800C0
:04063200003400345C
:0A06360085017030840003011A00F2
:10064000841FFD3384012030850003011A00051C3E
:10065000FD33082300308500303084005030950091
:1006600023008C010C14210020309E0024008C01FA
:100670008C1521000C1122000C163B009F019101EA
:10068000920197019801960107309500043093007C
:1006900094019F17C0309B003B00BF01B101B20124
:1006A000B701B8011B30B5000730B6008630B30083
:1006B000B401D030BB00BF173C142000131321003D
:1006C00013170B178B17F014F01621000330A3003B
:1006D0006430F700F703BE30F800F90A0430FA007E
:1006E0000230FB003C302100A4007016701AFE336B
:1006F0000130F022FC1CF633FC01FD01F3337F2BAB
:100700000B004034A034A034A03440344034C03412
:1007100040344034E034E0342034C0348034E034B9
:10072000E0342034C0342034E034A034A034E03449
:1007300020342034E0348034E0342034E034C034D9
:100740008034E034A034E034E034203420342034E9
:100750002034E034A034E034A034E034E034A03479
:06076000E0342034603497
:020000040001F9
:02000E00A73F0A
:02001000FF3EB1
:00000001FF
