:020000040000FA
:08000000FD2B890BFE33080003
:08000800F10A031970147019CC
:1000100019283B001B122100A001A101A201A3018C
:10002000A401A501043001208C100430012000003F
:100030008C1473080B00332848285B28682876281E
:100040009728C628E52859299E299D2AB92AF32AE6
:100050001E2B3B2B682B852B01002100F0190C1067
:100060003B003D100900720803193E28F20A0630D1
:100070007202031D2D28F201F30A2D283B004130A6
:10008000B3000330B6008D30B500BF17F20A2D283B
:10009000720803195328F20A06307202031D2D2834
:1000A000F201F30A2D283B000830B3000330B400FE
:1000B000BF17F20A2D28720803193E280630720273
:1000C00003196428F20A2D28F30AF201F01C2D28E6
:1000D00070113B008630B300B4010730B6001B300E
:1000E000B500BF17F30AF136CF232D28F30AF01914
:1000F0002D280C1403309D009D18FE331C36F6008D
:100100002830760228300318F60010309D0076362D
:1001100089368936D800FF30D900DA0107307605F4
:1001200003192D28D936DA0C890BFC332D28F30A54
:10013000F01D2D28F01AA6202100DE0B2D28F0112D
:100140003B002B13AB1321000C142D28F01C0800CE
:100150003B00A636A50CA436A30CAF170800190067
:10016000F0153B0000085D24A600000A5D24A500F0
:100170002636A400250CA300AF172B17AB17013FA1
:100180002100DE00023121000C100800F30A2000DB
:100190000C080839F400701B0E32701A0532031D6A
:1001A0000F32EA2370162D28F01E2D28031D083269
:1001B000F012D5232D28031D0332EA2370162D28B3
:1001C0007608023EF700F30A3B32FE0B39327B0819
:1001D000FE007908F707F91F0632F71F0B32F70107
:1001E000F909F90A073277082E3C03180332F7039E
:1001F000F909F90A7A08F807FA1F09323A30780241
:1002000003181E323A30F800FA09FA0A193278084F
:10021000ED3C03181532232103181232F016210089
:10022000DF0B02327012701702307607F700EF30E2
:10023000F800FC30FA00083019000230AF20F30A51
:100240004821F30A2D287608190003198003083E77
:100250001900770890210318023203100800EE30CD
:10026000F800FA09FA0A76087702031C0932031922
:10027000073206307607770201300318F9000232A0
:10028000FF30F90002301900AF20F30A0314080010
:100290002100773689368936DB00C030DC00DD018D
:1002A0000730770503190800DC36DD0C890BFC33B9
:1002B00008004A3019007A30190078089021031C90
:1002C0002D3221008701A73086004A307802F839A4
:1002D000190086075B088607F0307719890E01053B
:1002E00003191C320F307719890E8105FA09FA0AB1
:1002F0007A08F8071200893689360B00093009326E
:10030000093007320730053205300332033001323D
:100310000130A123013019000030AF20F30A2D284D
:10032000F500013F7502031C07320008F5020308BF
:10033000013A8300023108000032FC331D307102A3
:10034000031D2D28F201F30A2D2878081900083E14
:100350001900710890210800A0351B3003185708B8
:100360008C00A0351B30031857088C00A0351B30BB
:10037000031857088C00A0351B30031857088C0051
:10038000A0351B30031857088C00A0351B3003180C
:1003900057088C00A0351B30031857088C00A03577
:1003A0001B30031857088C00A1351B300318570861
:1003B0008C00A1351B30031857088C00A1351B3069
:1003C000031857088C00A1351B30031857088C0000
:1003D000A1351B30031857088C00A1351B300318BA
:1003E00057088C00A1351B30031857088C00A13525
:1003F0001B30031857088C00A2351B300318570810
:100400008C00A2351B30031857088C00A2351B3016
:10041000031857088C00A2351B30031857088C00AE
:10042000A2351B30031857088C00A2351B30031867
:1004300057088C00A2351B30031857088C00A235D2
:100440001B30031857088C00A3351B3003185708BE
:100450008C00A3351B30031857088C00A3351B30C4
:10046000031857088C00A3351B30031857088C005D
:10047000A3351B30031857088C00A3351B30031815
:1004800057088C00A3351B30031857088C00A33580
:100490001B30031857088C00A4351B30031857086D
:1004A0008C00A4351B30031857088C00A4351B3072
:1004B000031857088C00A4351B30031857088C000C
:1004C000A4351B30031857088C00A4351B300318C3
:1004D00057088C00A4351B30031857088C00A4352E
:1004E0001B30031857088C00A5351B30031857081C
:1004F0008C00A5351B30031857088C00A5351B3020
:10050000031857088C00A5351B30031857088C00BA
:10051000A5351B30031857088C00A5351B30031870
:1005200057088C00A5351B30031857088C00A535DB
:100530001B30031857088C0008007208893689366A
:1005400019007C083624890EA0047D0E3624A004F0
:100550007D083624890EA1045F083624A404AC214A
:100560000131F20A14307202031D2D28F201F30A40
:100570002D28A009A109A209A309A409A5090B30E6
:10058000D700163001200B308C00AC210B308C00D2
:1005900003201B308C00F20A08307202031D2D2844
:1005A000F201F30A2D28A521031C0A328701A0308D
:1005B00086005B0886075C081E005D08C03F0800D7
:1005C0000130012000000800D3220B30D700093091
:1005D000012000320B308C00AC210B308C0003204A
:1005E0001B308C0008000032E422F20A1030720244
:1005F000031D2D28F201F30A2D281600A004160071
:10060000A1041600A2041600A3041600A4041600F8
:10061000A5040800D7008701FD2200000B308C00E4
:10062000AC210B308C0003201B308C00F20A3030E0
:100630007202031D2D28F201F30A2D28D322A730C0
:100640008600F830720586073B0019001030000262
:1006500003181B1612002100893689360B00093059
:10066000D9330930D7330930D5330930D333193072
:10067000D1331930CF33701B0232E42221320930DA
:10068000D700283019005030190072089021031C3F
:100690001632843087006230860003100A30F01B67
:1006A00086070318870A28307202F8398936893696
:1006B00086070318870A1600A1001600A200AC21C5
:1006C000F20A7C307202031D2D28F201F30A2D2854
:1006D0008701A03086005808860759081E005A086E
:1006E000C03F0B30D700153001200B308C00AC21FF
:1006F0000B308C0003201B308C00F20A0430720295
:10070000031D2D28F201F30A2D287018882B2D289F
:10071000F0188F2B05307102031D2D28992B063000
:100720007102031D2D283B000330B6008D30B5004B
:10073000BF17F301F201F101701070150230F006DD
:100740002D28FD07831805320F307D05093C03185D
:1007500002320630FD077D0E0F39093C03180932BD
:100760006030FD07FC0A02307C02031C08000130E7
:10077000FB0004307C02031D080008307D02031DCD
:1007800008007017F017080000308700A7308600B7
:100790003030F400FF301E00F40BFD330800FF364C
:1007A000B8300318FF067F080800CF2307398935C2
:1007B0000B0001300D32FF300B3201300932FF30B7
:1007C000073201300532FF30033201300132003090
:1007D000F9000800FC01FD01C42321000330DF0003
:1007E000FE01FE0AEF30F800D523FC30FA0002309B
:0607F000FB00F00108000F
:0407F6000034003497
:0607FA00703084000301D1
:100800001A00841FFD337F1423008C010C147030F8
:100810008400210020309E0022000C1621000C11C3
:100820000D3087008E3086008101860AC1300602B5
:10083000031DFA333B00C0309B00073095000430A5
:1008400093009F173030AE001B30B5000730B60064
:100850008630B300D030BB00BF173C142000131308
:10086000210013170B178B17EA23352CF4000E39D0
:10087000F500F535F535F507753600074324741C8A
:10088000890E0F3908000B004434AC34A434A4346E
:100890004E34EE342234CC348234EE34AE34A834C8
:1008A000EE3422342E34CE348234E234A234E234B4
:1008B000EE34AA34EE34A234E6340B008B34D33455
:1008C0000D34FB34F4005C0086005200E500520059
:1008D0008400D200F4005C00EE00E8008A00A8006A
:0C08E0008A00A8008A00A800EE00EF00CB
:020000040001F9
:02000E00A73F0A
:02001000FF1ED1
:00000001FF
